{
  "contractName": "Royalties",
  "abi": [
    {
      "inputs": [
        {
          "internalType": "bytes4",
          "name": "interfaceId",
          "type": "bytes4"
        }
      ],
      "name": "supportsInterface",
      "outputs": [
        {
          "internalType": "bool",
          "name": "",
          "type": "bool"
        }
      ],
      "stateMutability": "view",
      "type": "function"
    },
    {
      "inputs": [
        {
          "internalType": "uint256",
          "name": "tokenId",
          "type": "uint256"
        },
        {
          "internalType": "uint256",
          "name": "value",
          "type": "uint256"
        }
      ],
      "name": "royaltyInfo",
      "outputs": [
        {
          "internalType": "address",
          "name": "receiver",
          "type": "address"
        },
        {
          "internalType": "uint256",
          "name": "royaltyAmount",
          "type": "uint256"
        }
      ],
      "stateMutability": "view",
      "type": "function"
    }
  ],
  "bytecode": "0x608060405234801561001057600080fd5b506102f5806100206000396000f3fe608060405234801561001057600080fd5b50600436106100365760003560e01c806301ffc9a71461003b5780632a55205a14610063575b600080fd5b61004e6100493660046101b5565b6100a2565b60405190151581526020015b60405180910390f35b6100766100713660046101fe565b61013b565b6040805173ffffffffffffffffffffffffffffffffffffffff909316835260208301919091520161005a565b60007fffffffff0000000000000000000000000000000000000000000000000000000082167f2a55205a00000000000000000000000000000000000000000000000000000000148061013557507f01ffc9a7000000000000000000000000000000000000000000000000000000007fffffffff000000000000000000000000000000000000000000000000000000008316145b92915050565b60008281526020818152604080832081518083019092525473ffffffffffffffffffffffffffffffffffffffff81168083527401000000000000000000000000000000000000000090910462ffffff169282018390529291612710906101a19086610220565b6101ab9190610284565b9150509250929050565b6000602082840312156101c757600080fd5b81357fffffffff00000000000000000000000000000000000000000000000000000000811681146101f757600080fd5b9392505050565b6000806040838503121561021157600080fd5b50508035926020909101359150565b6000817fffffffffffffffffffffffffffffffffffffffffffffffffffffffffffffffff048311821515161561027f577f4e487b7100000000000000000000000000000000000000000000000000000000600052601160045260246000fd5b500290565b6000826102ba577f4e487b7100000000000000000000000000000000000000000000000000000000600052601260045260246000fd5b50049056fea2646970667358221220d9055e651ac5dbb7e56cc66f8d93434d8f227e2201fd205662d2350137db35ce64736f6c634300080d0033",
  "immutableReferences": {},
  "source": "// SPDX-License-Identifier: MIT\npragma solidity 0.8.13;\n\nimport \"@openzeppelin/contracts/interfaces/IERC2981.sol\";\nimport \"@openzeppelin/contracts/utils/introspection/ERC165.sol\";\ncontract Royalties is IERC2981, ERC165{\n\n    struct RoyaltyInfo {\n        address recipient;\n        uint24 amount;\n    }\n\n    mapping(uint256 => RoyaltyInfo) internal _royalties;\n\n    function supportsInterface(bytes4 interfaceId) public view virtual override(IERC165, ERC165) returns (bool) {\n        return interfaceId == type(IERC2981).interfaceId || super.supportsInterface(interfaceId);\n    }\n\n    function _setTokenRoyalty( uint256 tokenId, address recipient, uint256 value) internal {\n        require(value <= 10000, 'ERC2981Royalties: Too high');\n        _royalties[tokenId] = RoyaltyInfo(recipient, uint24(value));\n    }\n\n    function royaltyInfo(uint256 tokenId, uint256 value) external view override returns (address receiver, uint256 royaltyAmount)\n    {\n        RoyaltyInfo memory royalties = _royalties[tokenId];\n        receiver = royalties.recipient;\n        royaltyAmount = (value * royalties.amount) / 10000;\n    }\n}\n",
  "sourcePath": "/home/amsteradams/developpement/Solidity-Nfts/first-sft/contracts/royalties.sol",
  "compiler": {
    "name": "solc",
    "version": "0.8.13+commit.abaa5c0e.Emscripten.clang"
  },
  "schemaVersion": "3.4.6",
  "updatedAt": "2022-05-09T13:57:06.399Z",
  "devdoc": {
    "kind": "dev",
    "methods": {},
    "version": 1
  },
  "userdoc": {
    "kind": "user",
    "methods": {},
    "version": 1
  }
}