{
  "contractName": "sft",
  "abi": [
    {
      "inputs": [],
      "stateMutability": "nonpayable",
      "type": "constructor"
    },
    {
      "anonymous": false,
      "inputs": [
        {
          "indexed": true,
          "internalType": "address",
          "name": "account",
          "type": "address"
        },
        {
          "indexed": true,
          "internalType": "address",
          "name": "operator",
          "type": "address"
        },
        {
          "indexed": false,
          "internalType": "bool",
          "name": "approved",
          "type": "bool"
        }
      ],
      "name": "ApprovalForAll",
      "type": "event"
    },
    {
      "anonymous": false,
      "inputs": [
        {
          "indexed": true,
          "internalType": "address",
          "name": "previousOwner",
          "type": "address"
        },
        {
          "indexed": true,
          "internalType": "address",
          "name": "newOwner",
          "type": "address"
        }
      ],
      "name": "OwnershipTransferred",
      "type": "event"
    },
    {
      "anonymous": false,
      "inputs": [
        {
          "indexed": true,
          "internalType": "address",
          "name": "operator",
          "type": "address"
        },
        {
          "indexed": true,
          "internalType": "address",
          "name": "from",
          "type": "address"
        },
        {
          "indexed": true,
          "internalType": "address",
          "name": "to",
          "type": "address"
        },
        {
          "indexed": false,
          "internalType": "uint256[]",
          "name": "ids",
          "type": "uint256[]"
        },
        {
          "indexed": false,
          "internalType": "uint256[]",
          "name": "values",
          "type": "uint256[]"
        }
      ],
      "name": "TransferBatch",
      "type": "event"
    },
    {
      "anonymous": false,
      "inputs": [
        {
          "indexed": true,
          "internalType": "address",
          "name": "operator",
          "type": "address"
        },
        {
          "indexed": true,
          "internalType": "address",
          "name": "from",
          "type": "address"
        },
        {
          "indexed": true,
          "internalType": "address",
          "name": "to",
          "type": "address"
        },
        {
          "indexed": false,
          "internalType": "uint256",
          "name": "id",
          "type": "uint256"
        },
        {
          "indexed": false,
          "internalType": "uint256",
          "name": "value",
          "type": "uint256"
        }
      ],
      "name": "TransferSingle",
      "type": "event"
    },
    {
      "anonymous": false,
      "inputs": [
        {
          "indexed": false,
          "internalType": "string",
          "name": "value",
          "type": "string"
        },
        {
          "indexed": true,
          "internalType": "uint256",
          "name": "id",
          "type": "uint256"
        }
      ],
      "name": "URI",
      "type": "event"
    },
    {
      "inputs": [
        {
          "internalType": "address",
          "name": "account",
          "type": "address"
        },
        {
          "internalType": "uint256",
          "name": "id",
          "type": "uint256"
        }
      ],
      "name": "balanceOf",
      "outputs": [
        {
          "internalType": "uint256",
          "name": "",
          "type": "uint256"
        }
      ],
      "stateMutability": "view",
      "type": "function",
      "constant": true
    },
    {
      "inputs": [
        {
          "internalType": "address[]",
          "name": "accounts",
          "type": "address[]"
        },
        {
          "internalType": "uint256[]",
          "name": "ids",
          "type": "uint256[]"
        }
      ],
      "name": "balanceOfBatch",
      "outputs": [
        {
          "internalType": "uint256[]",
          "name": "",
          "type": "uint256[]"
        }
      ],
      "stateMutability": "view",
      "type": "function",
      "constant": true
    },
    {
      "inputs": [
        {
          "internalType": "address",
          "name": "account",
          "type": "address"
        },
        {
          "internalType": "address",
          "name": "operator",
          "type": "address"
        }
      ],
      "name": "isApprovedForAll",
      "outputs": [
        {
          "internalType": "bool",
          "name": "",
          "type": "bool"
        }
      ],
      "stateMutability": "view",
      "type": "function",
      "constant": true
    },
    {
      "inputs": [
        {
          "internalType": "uint256",
          "name": "",
          "type": "uint256"
        }
      ],
      "name": "itemSold",
      "outputs": [
        {
          "internalType": "uint256",
          "name": "",
          "type": "uint256"
        }
      ],
      "stateMutability": "view",
      "type": "function",
      "constant": true
    },
    {
      "inputs": [],
      "name": "owner",
      "outputs": [
        {
          "internalType": "address",
          "name": "",
          "type": "address"
        }
      ],
      "stateMutability": "view",
      "type": "function",
      "constant": true
    },
    {
      "inputs": [],
      "name": "renounceOwnership",
      "outputs": [],
      "stateMutability": "nonpayable",
      "type": "function"
    },
    {
      "inputs": [
        {
          "internalType": "uint256",
          "name": "tokenId",
          "type": "uint256"
        },
        {
          "internalType": "uint256",
          "name": "value",
          "type": "uint256"
        }
      ],
      "name": "royaltyInfo",
      "outputs": [
        {
          "internalType": "address",
          "name": "receiver",
          "type": "address"
        },
        {
          "internalType": "uint256",
          "name": "royaltyAmount",
          "type": "uint256"
        }
      ],
      "stateMutability": "view",
      "type": "function",
      "constant": true
    },
    {
      "inputs": [
        {
          "internalType": "address",
          "name": "from",
          "type": "address"
        },
        {
          "internalType": "address",
          "name": "to",
          "type": "address"
        },
        {
          "internalType": "uint256[]",
          "name": "ids",
          "type": "uint256[]"
        },
        {
          "internalType": "uint256[]",
          "name": "amounts",
          "type": "uint256[]"
        },
        {
          "internalType": "bytes",
          "name": "data",
          "type": "bytes"
        }
      ],
      "name": "safeBatchTransferFrom",
      "outputs": [],
      "stateMutability": "nonpayable",
      "type": "function"
    },
    {
      "inputs": [
        {
          "internalType": "address",
          "name": "from",
          "type": "address"
        },
        {
          "internalType": "address",
          "name": "to",
          "type": "address"
        },
        {
          "internalType": "uint256",
          "name": "id",
          "type": "uint256"
        },
        {
          "internalType": "uint256",
          "name": "amount",
          "type": "uint256"
        },
        {
          "internalType": "bytes",
          "name": "data",
          "type": "bytes"
        }
      ],
      "name": "safeTransferFrom",
      "outputs": [],
      "stateMutability": "nonpayable",
      "type": "function"
    },
    {
      "inputs": [
        {
          "internalType": "address",
          "name": "operator",
          "type": "address"
        },
        {
          "internalType": "bool",
          "name": "approved",
          "type": "bool"
        }
      ],
      "name": "setApprovalForAll",
      "outputs": [],
      "stateMutability": "nonpayable",
      "type": "function"
    },
    {
      "inputs": [
        {
          "internalType": "address",
          "name": "newOwner",
          "type": "address"
        }
      ],
      "name": "transferOwnership",
      "outputs": [],
      "stateMutability": "nonpayable",
      "type": "function"
    },
    {
      "inputs": [
        {
          "internalType": "uint256",
          "name": "",
          "type": "uint256"
        }
      ],
      "name": "uri",
      "outputs": [
        {
          "internalType": "string",
          "name": "",
          "type": "string"
        }
      ],
      "stateMutability": "view",
      "type": "function",
      "constant": true
    },
    {
      "inputs": [
        {
          "internalType": "bytes4",
          "name": "interfaceId",
          "type": "bytes4"
        }
      ],
      "name": "supportsInterface",
      "outputs": [
        {
          "internalType": "bool",
          "name": "",
          "type": "bool"
        }
      ],
      "stateMutability": "view",
      "type": "function",
      "constant": true
    },
    {
      "inputs": [
        {
          "internalType": "address",
          "name": "_addr",
          "type": "address"
        },
        {
          "internalType": "uint256",
          "name": "_smartness",
          "type": "uint256"
        },
        {
          "internalType": "uint256",
          "name": "_height",
          "type": "uint256"
        },
        {
          "internalType": "uint256",
          "name": "_supply",
          "type": "uint256"
        }
      ],
      "name": "createItem",
      "outputs": [
        {
          "internalType": "uint256",
          "name": "",
          "type": "uint256"
        }
      ],
      "stateMutability": "nonpayable",
      "type": "function"
    },
    {
      "inputs": [],
      "name": "exercise",
      "outputs": [],
      "stateMutability": "nonpayable",
      "type": "function"
    }
  ],
  "bytecode": "0x60806040523480156200001157600080fd5b506040518060800160405280605a8152602001620022e7605a9139620000378162000049565b50620000433362000062565b62000196565b80516200005e906002906020840190620000b4565b5050565b600380546001600160a01b038381166001600160a01b0319831681179093556040519116919082907f8be0079c531659141344cd1fd0a4f28419497f9722a3daafe3b4186f6b6457e090600090a35050565b828054620000c2906200015a565b90600052602060002090601f016020900481019282620000e6576000855562000131565b82601f106200010157805160ff191683800117855562000131565b8280016001018555821562000131579182015b828111156200013157825182559160200191906001019062000114565b506200013f92915062000143565b5090565b5b808211156200013f576000815560010162000144565b600181811c908216806200016f57607f821691505b6020821081036200019057634e487b7160e01b600052602260045260246000fd5b50919050565b61214180620001a66000396000f3fe608060405234801561001057600080fd5b50600436106100f45760003560e01c80638da5cb5b11610097578063f0596a7911610066578063f0596a791461026a578063f242432a1461028a578063f2fde38b1461029d578063f6176e64146102b057600080fd5b80638da5cb5b146101de578063a22cb46514610206578063d32cb0fe14610219578063e985e9c51461022157600080fd5b80632a55205a116100d35780632a55205a146101625780632eb2c2d6146101a15780634e1273f4146101b6578063715018a6146101d657600080fd5b8062fdd58e146100f957806301ffc9a71461011f5780630e89341c14610142575b600080fd5b61010c61010736600461181a565b6102c3565b6040519081526020015b60405180910390f35b61013261012d366004611872565b610386565b6040519015158152602001610116565b610155610150366004611896565b610397565b604051610116919061191a565b61017561017036600461192d565b61042b565b6040805173ffffffffffffffffffffffffffffffffffffffff9093168352602083019190915201610116565b6101b46101af366004611af0565b6104a7565b005b6101c96101c4366004611b9a565b610556565b6040516101169190611c96565b6101b4610694565b60035460405173ffffffffffffffffffffffffffffffffffffffff9091168152602001610116565b6101b4610214366004611ca9565b610707565b6101b4610716565b61013261022f366004611ce5565b73ffffffffffffffffffffffffffffffffffffffff918216600090815260016020908152604080832093909416825291909152205460ff1690565b61010c610278366004611896565b60076020526000908152604090205481565b6101b4610298366004611d18565b61073a565b6101b46102ab366004611d7d565b6107e2565b61010c6102be366004611d98565b6108db565b600073ffffffffffffffffffffffffffffffffffffffff83166103535760405162461bcd60e51b815260206004820152602b60248201527f455243313135353a2062616c616e636520717565727920666f7220746865207a60448201527f65726f206164647265737300000000000000000000000000000000000000000060648201526084015b60405180910390fd5b5060009081526020818152604080832073ffffffffffffffffffffffffffffffffffffffff949094168352929052205490565b6000610391826109c2565b92915050565b6060600280546103a690611dd1565b80601f01602080910402602001604051908101604052809291908181526020018280546103d290611dd1565b801561041f5780601f106103f45761010080835404028352916020019161041f565b820191906000526020600020905b81548152906001019060200180831161040257829003601f168201915b50505050509050919050565b600082815260046020908152604080832081518083019092525473ffffffffffffffffffffffffffffffffffffffff81168083527401000000000000000000000000000000000000000090910462ffffff169282018390529291612710906104939086611e53565b61049d9190611e90565b9150509250929050565b73ffffffffffffffffffffffffffffffffffffffff85163314806104d057506104d0853361022f565b6105425760405162461bcd60e51b815260206004820152603260248201527f455243313135353a207472616e736665722063616c6c6572206973206e6f742060448201527f6f776e6572206e6f7220617070726f7665640000000000000000000000000000606482015260840161034a565b61054f8585858585610a18565b5050505050565b606081518351146105cf5760405162461bcd60e51b815260206004820152602960248201527f455243313135353a206163636f756e747320616e6420696473206c656e67746860448201527f206d69736d617463680000000000000000000000000000000000000000000000606482015260840161034a565b6000835167ffffffffffffffff8111156105eb576105eb61194f565b604051908082528060200260200182016040528015610614578160200160208202803683370190505b50905060005b845181101561068c5761065f85828151811061063857610638611ecb565b602002602001015185838151811061065257610652611ecb565b60200260200101516102c3565b82828151811061067157610671611ecb565b602090810291909101015261068581611efa565b905061061a565b509392505050565b60035473ffffffffffffffffffffffffffffffffffffffff1633146106fb5760405162461bcd60e51b815260206004820181905260248201527f4f776e61626c653a2063616c6c6572206973206e6f7420746865206f776e6572604482015260640161034a565b6107056000610d04565b565b610712338383610d7b565b5050565b61072533604860b960016108db565b5061073733603260b4621e84806108db565b50565b73ffffffffffffffffffffffffffffffffffffffff85163314806107635750610763853361022f565b6107d55760405162461bcd60e51b815260206004820152602960248201527f455243313135353a2063616c6c6572206973206e6f74206f776e6572206e6f7260448201527f20617070726f7665640000000000000000000000000000000000000000000000606482015260840161034a565b61054f8585858585610eb4565b60035473ffffffffffffffffffffffffffffffffffffffff1633146108495760405162461bcd60e51b815260206004820181905260248201527f4f776e61626c653a2063616c6c6572206973206e6f7420746865206f776e6572604482015260640161034a565b73ffffffffffffffffffffffffffffffffffffffff81166108d25760405162461bcd60e51b815260206004820152602660248201527f4f776e61626c653a206e6577206f776e657220697320746865207a65726f206160448201527f6464726573730000000000000000000000000000000000000000000000000000606482015260840161034a565b61073781610d04565b60006108eb600580546001019055565b604080516060810182528581526020810185815291810184815260068054600181018255600091825292517ff652222313e28459528d920b65115c16c04f3efc82aaedc97be59f3f377c0d3f60039094029384015592517ff652222313e28459528d920b65115c16c04f3efc82aaedc97be59f3f377c0d40830155517ff652222313e28459528d920b65115c16c04f3efc82aaedc97be59f3f377c0d419091015560055490506109ac868285604051806020016040528060008152506110be565b6109b981336103e8611215565b95945050505050565b60007fffffffff0000000000000000000000000000000000000000000000000000000082167f2a55205a0000000000000000000000000000000000000000000000000000000014806103915750610391826112f4565b8151835114610a8f5760405162461bcd60e51b815260206004820152602860248201527f455243313135353a2069647320616e6420616d6f756e7473206c656e6774682060448201527f6d69736d61746368000000000000000000000000000000000000000000000000606482015260840161034a565b73ffffffffffffffffffffffffffffffffffffffff8416610b185760405162461bcd60e51b815260206004820152602560248201527f455243313135353a207472616e7366657220746f20746865207a65726f20616460448201527f6472657373000000000000000000000000000000000000000000000000000000606482015260840161034a565b3360005b8451811015610c6f576000858281518110610b3957610b39611ecb565b602002602001015190506000858381518110610b5757610b57611ecb565b6020908102919091018101516000848152808352604080822073ffffffffffffffffffffffffffffffffffffffff8e168352909352919091205490915081811015610c0a5760405162461bcd60e51b815260206004820152602a60248201527f455243313135353a20696e73756666696369656e742062616c616e636520666f60448201527f72207472616e7366657200000000000000000000000000000000000000000000606482015260840161034a565b60008381526020818152604080832073ffffffffffffffffffffffffffffffffffffffff8e8116855292528083208585039055908b16825281208054849290610c54908490611f32565b9250508190555050505080610c6890611efa565b9050610b1c565b508473ffffffffffffffffffffffffffffffffffffffff168673ffffffffffffffffffffffffffffffffffffffff168273ffffffffffffffffffffffffffffffffffffffff167f4a39dc06d4c0dbc64b70af90fd698a233a518aa5d07e595d983b8c0526c8f7fb8787604051610ce6929190611f4a565b60405180910390a4610cfc8187878787876113d7565b505050505050565b6003805473ffffffffffffffffffffffffffffffffffffffff8381167fffffffffffffffffffffffff0000000000000000000000000000000000000000831681179093556040519116919082907f8be0079c531659141344cd1fd0a4f28419497f9722a3daafe3b4186f6b6457e090600090a35050565b8173ffffffffffffffffffffffffffffffffffffffff168373ffffffffffffffffffffffffffffffffffffffff1603610e1c5760405162461bcd60e51b815260206004820152602960248201527f455243313135353a2073657474696e6720617070726f76616c2073746174757360448201527f20666f722073656c660000000000000000000000000000000000000000000000606482015260840161034a565b73ffffffffffffffffffffffffffffffffffffffff83811660008181526001602090815260408083209487168084529482529182902080547fffffffffffffffffffffffffffffffffffffffffffffffffffffffffffffff001686151590811790915591519182527f17307eab39ab6107e8899845ad3d59bd9653f200f220920489ca2b5937696c31910160405180910390a3505050565b73ffffffffffffffffffffffffffffffffffffffff8416610f3d5760405162461bcd60e51b815260206004820152602560248201527f455243313135353a207472616e7366657220746f20746865207a65726f20616460448201527f6472657373000000000000000000000000000000000000000000000000000000606482015260840161034a565b336000610f4985611613565b90506000610f5685611613565b905060008681526020818152604080832073ffffffffffffffffffffffffffffffffffffffff8c16845290915290205485811015610ffc5760405162461bcd60e51b815260206004820152602a60248201527f455243313135353a20696e73756666696369656e742062616c616e636520666f60448201527f72207472616e7366657200000000000000000000000000000000000000000000606482015260840161034a565b60008781526020818152604080832073ffffffffffffffffffffffffffffffffffffffff8d8116855292528083208985039055908a16825281208054889290611046908490611f32565b9091555050604080518881526020810188905273ffffffffffffffffffffffffffffffffffffffff808b16928c821692918816917fc3d58168c5ae7397731d063d5bbf3d657854427343f4c083240f7aacaa2d0f62910160405180910390a46110b3848a8a8a8a8a61165e565b505050505050505050565b73ffffffffffffffffffffffffffffffffffffffff84166111475760405162461bcd60e51b815260206004820152602160248201527f455243313135353a206d696e7420746f20746865207a65726f2061646472657360448201527f7300000000000000000000000000000000000000000000000000000000000000606482015260840161034a565b33600061115385611613565b9050600061116085611613565b905060008681526020818152604080832073ffffffffffffffffffffffffffffffffffffffff8b1684529091528120805487929061119f908490611f32565b9091555050604080518781526020810187905273ffffffffffffffffffffffffffffffffffffffff808a1692600092918716917fc3d58168c5ae7397731d063d5bbf3d657854427343f4c083240f7aacaa2d0f62910160405180910390a461120c8360008989898961165e565b50505050505050565b6127108111156112675760405162461bcd60e51b815260206004820152601a60248201527f45524332393831526f79616c746965733a20546f6f2068696768000000000000604482015260640161034a565b60408051808201825273ffffffffffffffffffffffffffffffffffffffff938416815262ffffff92831660208083019182526000968752600490529190942093518454915190921674010000000000000000000000000000000000000000027fffffffffffffffffff00000000000000000000000000000000000000000000009091169190921617179055565b60007fffffffff0000000000000000000000000000000000000000000000000000000082167fd9b67a2600000000000000000000000000000000000000000000000000000000148061138757507fffffffff0000000000000000000000000000000000000000000000000000000082167f0e89341c00000000000000000000000000000000000000000000000000000000145b8061039157507f01ffc9a7000000000000000000000000000000000000000000000000000000007fffffffff00000000000000000000000000000000000000000000000000000000831614610391565b73ffffffffffffffffffffffffffffffffffffffff84163b15610cfc576040517fbc197c8100000000000000000000000000000000000000000000000000000000815273ffffffffffffffffffffffffffffffffffffffff85169063bc197c819061144e9089908990889088908890600401611f6f565b6020604051808303816000875af19250505080156114a7575060408051601f3d9081017fffffffffffffffffffffffffffffffffffffffffffffffffffffffffffffffe01682019092526114a491810190611fda565b60015b61155c576114b3611ff7565b806308c379a0036114ec57506114c7612013565b806114d257506114ee565b8060405162461bcd60e51b815260040161034a919061191a565b505b60405162461bcd60e51b815260206004820152603460248201527f455243313135353a207472616e7366657220746f206e6f6e204552433131353560448201527f526563656976657220696d706c656d656e746572000000000000000000000000606482015260840161034a565b7fffffffff0000000000000000000000000000000000000000000000000000000081167fbc197c81000000000000000000000000000000000000000000000000000000001461120c5760405162461bcd60e51b815260206004820152602860248201527f455243313135353a204552433131353552656365697665722072656a6563746560448201527f6420746f6b656e73000000000000000000000000000000000000000000000000606482015260840161034a565b6040805160018082528183019092526060916000919060208083019080368337019050509050828160008151811061164d5761164d611ecb565b602090810291909101015292915050565b73ffffffffffffffffffffffffffffffffffffffff84163b15610cfc576040517ff23a6e6100000000000000000000000000000000000000000000000000000000815273ffffffffffffffffffffffffffffffffffffffff85169063f23a6e61906116d590899089908890889088906004016120bb565b6020604051808303816000875af192505050801561172e575060408051601f3d9081017fffffffffffffffffffffffffffffffffffffffffffffffffffffffffffffffe016820190925261172b91810190611fda565b60015b61173a576114b3611ff7565b7fffffffff0000000000000000000000000000000000000000000000000000000081167ff23a6e61000000000000000000000000000000000000000000000000000000001461120c5760405162461bcd60e51b815260206004820152602860248201527f455243313135353a204552433131353552656365697665722072656a6563746560448201527f6420746f6b656e73000000000000000000000000000000000000000000000000606482015260840161034a565b803573ffffffffffffffffffffffffffffffffffffffff8116811461181557600080fd5b919050565b6000806040838503121561182d57600080fd5b611836836117f1565b946020939093013593505050565b7fffffffff000000000000000000000000000000000000000000000000000000008116811461073757600080fd5b60006020828403121561188457600080fd5b813561188f81611844565b9392505050565b6000602082840312156118a857600080fd5b5035919050565b6000815180845260005b818110156118d5576020818501810151868301820152016118b9565b818111156118e7576000602083870101525b50601f017fffffffffffffffffffffffffffffffffffffffffffffffffffffffffffffffe0169290920160200192915050565b60208152600061188f60208301846118af565b6000806040838503121561194057600080fd5b50508035926020909101359150565b7f4e487b7100000000000000000000000000000000000000000000000000000000600052604160045260246000fd5b7fffffffffffffffffffffffffffffffffffffffffffffffffffffffffffffffe0601f830116810181811067ffffffffffffffff821117156119c2576119c261194f565b6040525050565b600067ffffffffffffffff8211156119e3576119e361194f565b5060051b60200190565b600082601f8301126119fe57600080fd5b81356020611a0b826119c9565b604051611a18828261197e565b83815260059390931b8501820192828101915086841115611a3857600080fd5b8286015b84811015611a535780358352918301918301611a3c565b509695505050505050565b600082601f830112611a6f57600080fd5b813567ffffffffffffffff811115611a8957611a8961194f565b604051611abe60207fffffffffffffffffffffffffffffffffffffffffffffffffffffffffffffffe0601f850116018261197e565b818152846020838601011115611ad357600080fd5b816020850160208301376000918101602001919091529392505050565b600080600080600060a08688031215611b0857600080fd5b611b11866117f1565b9450611b1f602087016117f1565b9350604086013567ffffffffffffffff80821115611b3c57600080fd5b611b4889838a016119ed565b94506060880135915080821115611b5e57600080fd5b611b6a89838a016119ed565b93506080880135915080821115611b8057600080fd5b50611b8d88828901611a5e565b9150509295509295909350565b60008060408385031215611bad57600080fd5b823567ffffffffffffffff80821115611bc557600080fd5b818501915085601f830112611bd957600080fd5b81356020611be6826119c9565b604051611bf3828261197e565b83815260059390931b8501820192828101915089841115611c1357600080fd5b948201945b83861015611c3857611c29866117f1565b82529482019490820190611c18565b96505086013592505080821115611c4e57600080fd5b5061049d858286016119ed565b600081518084526020808501945080840160005b83811015611c8b57815187529582019590820190600101611c6f565b509495945050505050565b60208152600061188f6020830184611c5b565b60008060408385031215611cbc57600080fd5b611cc5836117f1565b915060208301358015158114611cda57600080fd5b809150509250929050565b60008060408385031215611cf857600080fd5b611d01836117f1565b9150611d0f602084016117f1565b90509250929050565b600080600080600060a08688031215611d3057600080fd5b611d39866117f1565b9450611d47602087016117f1565b93506040860135925060608601359150608086013567ffffffffffffffff811115611d7157600080fd5b611b8d88828901611a5e565b600060208284031215611d8f57600080fd5b61188f826117f1565b60008060008060808587031215611dae57600080fd5b611db7856117f1565b966020860135965060408601359560600135945092505050565b600181811c90821680611de557607f821691505b602082108103611e1e577f4e487b7100000000000000000000000000000000000000000000000000000000600052602260045260246000fd5b50919050565b7f4e487b7100000000000000000000000000000000000000000000000000000000600052601160045260246000fd5b6000817fffffffffffffffffffffffffffffffffffffffffffffffffffffffffffffffff0483118215151615611e8b57611e8b611e24565b500290565b600082611ec6577f4e487b7100000000000000000000000000000000000000000000000000000000600052601260045260246000fd5b500490565b7f4e487b7100000000000000000000000000000000000000000000000000000000600052603260045260246000fd5b60007fffffffffffffffffffffffffffffffffffffffffffffffffffffffffffffffff8203611f2b57611f2b611e24565b5060010190565b60008219821115611f4557611f45611e24565b500190565b604081526000611f5d6040830185611c5b565b82810360208401526109b98185611c5b565b600073ffffffffffffffffffffffffffffffffffffffff808816835280871660208401525060a06040830152611fa860a0830186611c5b565b8281036060840152611fba8186611c5b565b90508281036080840152611fce81856118af565b98975050505050505050565b600060208284031215611fec57600080fd5b815161188f81611844565b600060033d11156120105760046000803e5060005160e01c5b90565b600060443d10156120215790565b6040517ffffffffffffffffffffffffffffffffffffffffffffffffffffffffffffffffc803d016004833e81513d67ffffffffffffffff816024840111818411171561206f57505050505090565b82850191508151818111156120875750505050505090565b843d87010160208285010111156120a15750505050505090565b6120b06020828601018761197e565b509095945050505050565b600073ffffffffffffffffffffffffffffffffffffffff808816835280871660208401525084604083015283606083015260a0608083015261210060a08301846118af565b97965050505050505056fea2646970667358221220b470afbf512958221ab229d90dc0d73e6595db009db65f8b912360ba2a60a79464736f6c634300080d003368747470733a2f2f676174657761792e70696e6174612e636c6f75642f697066732f516d6636747044623359756274586f65657a6761706b5168314d683738794131644c56485872754e7773786339452f7b69647d2e6a736f6e",
  "immutableReferences": {},
  "source": "// SPDX-License-Identifier: MIT\npragma solidity 0.8.13;\n\nimport \"@openzeppelin/contracts/token/ERC1155/ERC1155.sol\";\nimport \"@openzeppelin/contracts/utils/Counters.sol\";\nimport \"@openzeppelin/contracts/access/Ownable.sol\";\nimport \"./royalties.sol\";\n\ncontract sft is ERC1155, Ownable, Royalties{\n  using Counters for Counters.Counter;\n  Counters.Counter private _tokenId;\n  struct Item {\n    uint smartness;\n    uint height;\n    uint maxSupply;\n  }\n\n  Item[] Items;\n\n  mapping(uint => uint) public itemSold;\n    constructor() ERC1155(\"https://gateway.pinata.cloud/ipfs/Qmf6tpDb3YubtXoeezgapkQh1Mh78yA1dLVHXruNwsxc9E/{id}.json\"){\n    }\n\n    function supportsInterface(bytes4 interfaceId)public view virtual override(ERC1155, Royalties) returns(bool){\n      return super.supportsInterface(interfaceId);\n    }\n\n    function createItem(address _addr, uint _smartness, uint _height, uint _supply)public returns(uint){\n      _tokenId.increment();\n      Items.push(Item(_smartness, _height, _supply));\n      uint _newTokenId = _tokenId.current();\n      _mint(_addr, _newTokenId, _supply, \"\");\n      _setTokenRoyalty(_newTokenId, msg.sender, 1000);\n      return _newTokenId;\n    }\n\n    function exercise()external{\n      createItem(msg.sender, 72, 185, 1);\n      createItem(msg.sender, 50, 180, 2000000);\n    }\n}",
  "sourcePath": "/home/amsteradams/developpement/Solidity-Nfts/first-sft/contracts/sft.sol",
  "compiler": {
    "name": "solc",
    "version": "0.8.13+commit.abaa5c0e.Emscripten.clang"
  },
  "schemaVersion": "3.4.6",
  "updatedAt": "2022-05-09T14:01:34.582Z",
  "networkType": "ethereum",
  "devdoc": {
    "kind": "dev",
    "methods": {
      "balanceOf(address,uint256)": {
        "details": "See {IERC1155-balanceOf}. Requirements: - `account` cannot be the zero address."
      },
      "balanceOfBatch(address[],uint256[])": {
        "details": "See {IERC1155-balanceOfBatch}. Requirements: - `accounts` and `ids` must have the same length."
      },
      "isApprovedForAll(address,address)": {
        "details": "See {IERC1155-isApprovedForAll}."
      },
      "owner()": {
        "details": "Returns the address of the current owner."
      },
      "renounceOwnership()": {
        "details": "Leaves the contract without owner. It will not be possible to call `onlyOwner` functions anymore. Can only be called by the current owner. NOTE: Renouncing ownership will leave the contract without an owner, thereby removing any functionality that is only available to the owner."
      },
      "safeBatchTransferFrom(address,address,uint256[],uint256[],bytes)": {
        "details": "See {IERC1155-safeBatchTransferFrom}."
      },
      "safeTransferFrom(address,address,uint256,uint256,bytes)": {
        "details": "See {IERC1155-safeTransferFrom}."
      },
      "setApprovalForAll(address,bool)": {
        "details": "See {IERC1155-setApprovalForAll}."
      },
      "transferOwnership(address)": {
        "details": "Transfers ownership of the contract to a new account (`newOwner`). Can only be called by the current owner."
      },
      "uri(uint256)": {
        "details": "See {IERC1155MetadataURI-uri}. This implementation returns the same URI for *all* token types. It relies on the token type ID substitution mechanism https://eips.ethereum.org/EIPS/eip-1155#metadata[defined in the EIP]. Clients calling this function must replace the `\\{id\\}` substring with the actual token type ID."
      }
    },
    "version": 1
  },
  "userdoc": {
    "kind": "user",
    "methods": {},
    "version": 1
  }
}