{
  "contractName": "Factory",
  "abi": [
    {
      "inputs": [
        {
          "internalType": "string",
          "name": "symbol",
          "type": "string"
        },
        {
          "internalType": "string",
          "name": "name",
          "type": "string"
        }
      ],
      "name": "deployNft",
      "outputs": [],
      "stateMutability": "nonpayable",
      "type": "function"
    },
    {
      "inputs": [
        {
          "internalType": "string",
          "name": "uri",
          "type": "string"
        }
      ],
      "name": "deploySft",
      "outputs": [],
      "stateMutability": "nonpayable",
      "type": "function"
    },
    {
      "inputs": [],
      "name": "getMyContractAmount",
      "outputs": [
        {
          "internalType": "uint256",
          "name": "",
          "type": "uint256"
        }
      ],
      "stateMutability": "view",
      "type": "function",
      "constant": true
    },
    {
      "inputs": [
        {
          "internalType": "uint256",
          "name": "_i",
          "type": "uint256"
        }
      ],
      "name": "getAContract",
      "outputs": [
        {
          "internalType": "address",
          "name": "",
          "type": "address"
        }
      ],
      "stateMutability": "view",
      "type": "function",
      "constant": true
    }
  ],
  "bytecode": "0x608060405234801561001057600080fd5b50614567806100206000396000f3fe608060405234801561001057600080fd5b506004361061004c5760003560e01c8063725cd1201461005157806374291b06146100745780639f382d9c146100da578063f3990157146100ef575b600080fd5b336000908152602081905260409020546040519081526020015b60405180910390f35b6100b561008236600461058e565b336000908152600160209081526040808320938352929052205473ffffffffffffffffffffffffffffffffffffffff1690565b60405173ffffffffffffffffffffffffffffffffffffffff909116815260200161006b565b6100ed6100e8366004610681565b610102565b005b6100ed6100fd3660046106be565b61033a565b3360009081526020819052604081205490036101d15760008160405161012790610572565b610131919061078d565b604051809103906000f08015801561014d573d6000803e3d6000fd5b503360008181526001602081815260408084208483528185208054865290835290842080547fffffffffffffffffffffffff00000000000000000000000000000000000000001673ffffffffffffffffffffffffffffffffffffffff88161790559383528290528254939450926101c59084906107d6565b90915550610337915050565b3360009081526002602052604090205462015180906101f090426107ee565b1015610283576040517f08c379a000000000000000000000000000000000000000000000000000000000815260206004820152602d60248201527f796f752063616e20637265617465206120636f6c6c656374696f6e206f6e6c7960448201527f206f6e636520706572206461790000000000000000000000000000000000000060648201526084015b60405180910390fd5b60008160405161029290610572565b61029c919061078d565b604051809103906000f0801580156102b8573d6000803e3d6000fd5b503360008181526001602081815260408084208483528185208054865290835290842080547fffffffffffffffffffffffff00000000000000000000000000000000000000001673ffffffffffffffffffffffffffffffffffffffff88161790559383528290528254939450926103309084906107d6565b9091555050505b50565b33600090815260208190526040812054900361040b576000828260405161036090610580565b61036b929190610805565b604051809103906000f080158015610387573d6000803e3d6000fd5b503360008181526001602081815260408084208483528185208054865290835290842080547fffffffffffffffffffffffff00000000000000000000000000000000000000001673ffffffffffffffffffffffffffffffffffffffff88161790559383528290528254939450926103ff9084906107d6565b9091555061056e915050565b33600090815260026020526040902054620151809061042a90426107ee565b10156104b8576040517f08c379a000000000000000000000000000000000000000000000000000000000815260206004820152602d60248201527f796f752063616e20637265617465206120636f6c6c656374696f6e206f6e6c7960448201527f206f6e6365207065722064617900000000000000000000000000000000000000606482015260840161027a565b600082826040516104c890610580565b6104d3929190610805565b604051809103906000f0801580156104ef573d6000803e3d6000fd5b503360008181526001602081815260408084208483528185208054865290835290842080547fffffffffffffffffffffffff00000000000000000000000000000000000000001673ffffffffffffffffffffffffffffffffffffffff88161790559383528290528254939450926105679084906107d6565b9091555050505b5050565b612117806200083483390190565b611be7806200294b83390190565b6000602082840312156105a057600080fd5b5035919050565b7f4e487b7100000000000000000000000000000000000000000000000000000000600052604160045260246000fd5b600082601f8301126105e757600080fd5b813567ffffffffffffffff80821115610602576106026105a7565b604051601f83017fffffffffffffffffffffffffffffffffffffffffffffffffffffffffffffffe0908116603f01168101908282118183101715610648576106486105a7565b8160405283815286602085880101111561066157600080fd5b836020870160208301376000602085830101528094505050505092915050565b60006020828403121561069357600080fd5b813567ffffffffffffffff8111156106aa57600080fd5b6106b6848285016105d6565b949350505050565b600080604083850312156106d157600080fd5b823567ffffffffffffffff808211156106e957600080fd5b6106f5868387016105d6565b9350602085013591508082111561070b57600080fd5b50610718858286016105d6565b9150509250929050565b6000815180845260005b818110156107485760208185018101518683018201520161072c565b8181111561075a576000602083870101525b50601f017fffffffffffffffffffffffffffffffffffffffffffffffffffffffffffffffe0169290920160200192915050565b6020815260006107a06020830184610722565b9392505050565b7f4e487b7100000000000000000000000000000000000000000000000000000000600052601160045260246000fd5b600082198211156107e9576107e96107a7565b500190565b600082821015610800576108006107a7565b500390565b6040815260006108186040830185610722565b828103602084015261082a8185610722565b9594505050505056fe60806040523480156200001157600080fd5b50604051620021173803806200211783398101604081905262000034916200017a565b80620000408162000053565b506200004c336200006c565b5062000292565b805162000068906002906020840190620000be565b5050565b600380546001600160a01b038381166001600160a01b0319831681179093556040519116919082907f8be0079c531659141344cd1fd0a4f28419497f9722a3daafe3b4186f6b6457e090600090a35050565b828054620000cc9062000256565b90600052602060002090601f016020900481019282620000f057600085556200013b565b82601f106200010b57805160ff19168380011785556200013b565b828001600101855582156200013b579182015b828111156200013b5782518255916020019190600101906200011e565b50620001499291506200014d565b5090565b5b808211156200014957600081556001016200014e565b634e487b7160e01b600052604160045260246000fd5b600060208083850312156200018e57600080fd5b82516001600160401b0380821115620001a657600080fd5b818501915085601f830112620001bb57600080fd5b815181811115620001d057620001d062000164565b604051601f8201601f19908116603f01168101908382118183101715620001fb57620001fb62000164565b8160405282815288868487010111156200021457600080fd5b600093505b8284101562000238578484018601518185018701529285019262000219565b828411156200024a5760008684830101525b98975050505050505050565b600181811c908216806200026b57607f821691505b6020821081036200028c57634e487b7160e01b600052602260045260246000fd5b50919050565b611e7580620002a26000396000f3fe608060405234801561001057600080fd5b50600436106100de5760003560e01c80638da5cb5b1161008c578063f0596a7911610066578063f0596a791461020d578063f242432a1461022d578063f2fde38b14610240578063f6176e641461025357600080fd5b80638da5cb5b14610189578063a22cb465146101b1578063e985e9c5146101c457600080fd5b80632eb2c2d6116100bd5780632eb2c2d61461014c5780634e1273f414610161578063715018a61461018157600080fd5b8062fdd58e146100e357806301ffc9a7146101095780630e89341c1461012c575b600080fd5b6100f66100f13660046115de565b610266565b6040519081526020015b60405180910390f35b61011c610117366004611636565b610329565b6040519015158152602001610100565b61013f61013a36600461165a565b61033a565b60405161010091906116de565b61015f61015a366004611892565b6103ce565b005b61017461016f36600461193c565b61047d565b6040516101009190611a42565b61015f6105bb565b60035460405173ffffffffffffffffffffffffffffffffffffffff9091168152602001610100565b61015f6101bf366004611a55565b61062e565b61011c6101d2366004611a91565b73ffffffffffffffffffffffffffffffffffffffff918216600090815260016020908152604080832093909416825291909152205460ff1690565b6100f661021b36600461165a565b60066020526000908152604090205481565b61015f61023b366004611ac4565b61063d565b61015f61024e366004611b29565b6106e5565b6100f6610261366004611b44565b6107e1565b600073ffffffffffffffffffffffffffffffffffffffff83166102f65760405162461bcd60e51b815260206004820152602b60248201527f455243313135353a2062616c616e636520717565727920666f7220746865207a60448201527f65726f206164647265737300000000000000000000000000000000000000000060648201526084015b60405180910390fd5b5060009081526020818152604080832073ffffffffffffffffffffffffffffffffffffffff949094168352929052205490565b6000610334826108bb565b92915050565b60606002805461034990611b7d565b80601f016020809104026020016040519081016040528092919081815260200182805461037590611b7d565b80156103c25780601f10610397576101008083540402835291602001916103c2565b820191906000526020600020905b8154815290600101906020018083116103a557829003601f168201915b50505050509050919050565b73ffffffffffffffffffffffffffffffffffffffff85163314806103f757506103f785336101d2565b6104695760405162461bcd60e51b815260206004820152603260248201527f455243313135353a207472616e736665722063616c6c6572206973206e6f742060448201527f6f776e6572206e6f7220617070726f766564000000000000000000000000000060648201526084016102ed565b610476858585858561099e565b5050505050565b606081518351146104f65760405162461bcd60e51b815260206004820152602960248201527f455243313135353a206163636f756e747320616e6420696473206c656e67746860448201527f206d69736d61746368000000000000000000000000000000000000000000000060648201526084016102ed565b6000835167ffffffffffffffff811115610512576105126116f1565b60405190808252806020026020018201604052801561053b578160200160208202803683370190505b50905060005b84518110156105b35761058685828151811061055f5761055f611bd0565b602002602001015185838151811061057957610579611bd0565b6020026020010151610266565b82828151811061059857610598611bd0565b60209081029190910101526105ac81611c2e565b9050610541565b509392505050565b60035473ffffffffffffffffffffffffffffffffffffffff1633146106225760405162461bcd60e51b815260206004820181905260248201527f4f776e61626c653a2063616c6c6572206973206e6f7420746865206f776e657260448201526064016102ed565b61062c6000610c8a565b565b610639338383610d01565b5050565b73ffffffffffffffffffffffffffffffffffffffff8516331480610666575061066685336101d2565b6106d85760405162461bcd60e51b815260206004820152602960248201527f455243313135353a2063616c6c6572206973206e6f74206f776e6572206e6f7260448201527f20617070726f766564000000000000000000000000000000000000000000000060648201526084016102ed565b6104768585858585610e3a565b60035473ffffffffffffffffffffffffffffffffffffffff16331461074c5760405162461bcd60e51b815260206004820181905260248201527f4f776e61626c653a2063616c6c6572206973206e6f7420746865206f776e657260448201526064016102ed565b73ffffffffffffffffffffffffffffffffffffffff81166107d55760405162461bcd60e51b815260206004820152602660248201527f4f776e61626c653a206e6577206f776e657220697320746865207a65726f206160448201527f646472657373000000000000000000000000000000000000000000000000000060648201526084016102ed565b6107de81610c8a565b50565b60006107f1600480546001019055565b604080516060810182528581526020810185815291810184815260058054600181018255600091825292517f036b6384b5eca791c62761152d0c79bb0604c104a5fb6f4eb0703f3154bb3db060039094029384015592517f036b6384b5eca791c62761152d0c79bb0604c104a5fb6f4eb0703f3154bb3db1830155517f036b6384b5eca791c62761152d0c79bb0604c104a5fb6f4eb0703f3154bb3db29091015560045490506108b286828560405180602001604052806000815250611044565b95945050505050565b60007fffffffff0000000000000000000000000000000000000000000000000000000082167fd9b67a2600000000000000000000000000000000000000000000000000000000148061094e57507fffffffff0000000000000000000000000000000000000000000000000000000082167f0e89341c00000000000000000000000000000000000000000000000000000000145b8061033457507f01ffc9a7000000000000000000000000000000000000000000000000000000007fffffffff00000000000000000000000000000000000000000000000000000000831614610334565b8151835114610a155760405162461bcd60e51b815260206004820152602860248201527f455243313135353a2069647320616e6420616d6f756e7473206c656e6774682060448201527f6d69736d6174636800000000000000000000000000000000000000000000000060648201526084016102ed565b73ffffffffffffffffffffffffffffffffffffffff8416610a9e5760405162461bcd60e51b815260206004820152602560248201527f455243313135353a207472616e7366657220746f20746865207a65726f20616460448201527f647265737300000000000000000000000000000000000000000000000000000060648201526084016102ed565b3360005b8451811015610bf5576000858281518110610abf57610abf611bd0565b602002602001015190506000858381518110610add57610add611bd0565b6020908102919091018101516000848152808352604080822073ffffffffffffffffffffffffffffffffffffffff8e168352909352919091205490915081811015610b905760405162461bcd60e51b815260206004820152602a60248201527f455243313135353a20696e73756666696369656e742062616c616e636520666f60448201527f72207472616e736665720000000000000000000000000000000000000000000060648201526084016102ed565b60008381526020818152604080832073ffffffffffffffffffffffffffffffffffffffff8e8116855292528083208585039055908b16825281208054849290610bda908490611c66565b9250508190555050505080610bee90611c2e565b9050610aa2565b508473ffffffffffffffffffffffffffffffffffffffff168673ffffffffffffffffffffffffffffffffffffffff168273ffffffffffffffffffffffffffffffffffffffff167f4a39dc06d4c0dbc64b70af90fd698a233a518aa5d07e595d983b8c0526c8f7fb8787604051610c6c929190611c7e565b60405180910390a4610c8281878787878761119b565b505050505050565b6003805473ffffffffffffffffffffffffffffffffffffffff8381167fffffffffffffffffffffffff0000000000000000000000000000000000000000831681179093556040519116919082907f8be0079c531659141344cd1fd0a4f28419497f9722a3daafe3b4186f6b6457e090600090a35050565b8173ffffffffffffffffffffffffffffffffffffffff168373ffffffffffffffffffffffffffffffffffffffff1603610da25760405162461bcd60e51b815260206004820152602960248201527f455243313135353a2073657474696e6720617070726f76616c2073746174757360448201527f20666f722073656c66000000000000000000000000000000000000000000000060648201526084016102ed565b73ffffffffffffffffffffffffffffffffffffffff83811660008181526001602090815260408083209487168084529482529182902080547fffffffffffffffffffffffffffffffffffffffffffffffffffffffffffffff001686151590811790915591519182527f17307eab39ab6107e8899845ad3d59bd9653f200f220920489ca2b5937696c31910160405180910390a3505050565b73ffffffffffffffffffffffffffffffffffffffff8416610ec35760405162461bcd60e51b815260206004820152602560248201527f455243313135353a207472616e7366657220746f20746865207a65726f20616460448201527f647265737300000000000000000000000000000000000000000000000000000060648201526084016102ed565b336000610ecf856113d7565b90506000610edc856113d7565b905060008681526020818152604080832073ffffffffffffffffffffffffffffffffffffffff8c16845290915290205485811015610f825760405162461bcd60e51b815260206004820152602a60248201527f455243313135353a20696e73756666696369656e742062616c616e636520666f60448201527f72207472616e736665720000000000000000000000000000000000000000000060648201526084016102ed565b60008781526020818152604080832073ffffffffffffffffffffffffffffffffffffffff8d8116855292528083208985039055908a16825281208054889290610fcc908490611c66565b9091555050604080518881526020810188905273ffffffffffffffffffffffffffffffffffffffff808b16928c821692918816917fc3d58168c5ae7397731d063d5bbf3d657854427343f4c083240f7aacaa2d0f62910160405180910390a4611039848a8a8a8a8a611422565b505050505050505050565b73ffffffffffffffffffffffffffffffffffffffff84166110cd5760405162461bcd60e51b815260206004820152602160248201527f455243313135353a206d696e7420746f20746865207a65726f2061646472657360448201527f730000000000000000000000000000000000000000000000000000000000000060648201526084016102ed565b3360006110d9856113d7565b905060006110e6856113d7565b905060008681526020818152604080832073ffffffffffffffffffffffffffffffffffffffff8b16845290915281208054879290611125908490611c66565b9091555050604080518781526020810187905273ffffffffffffffffffffffffffffffffffffffff808a1692600092918716917fc3d58168c5ae7397731d063d5bbf3d657854427343f4c083240f7aacaa2d0f62910160405180910390a461119283600089898989611422565b50505050505050565b73ffffffffffffffffffffffffffffffffffffffff84163b15610c82576040517fbc197c8100000000000000000000000000000000000000000000000000000000815273ffffffffffffffffffffffffffffffffffffffff85169063bc197c81906112129089908990889088908890600401611ca3565b6020604051808303816000875af192505050801561126b575060408051601f3d9081017fffffffffffffffffffffffffffffffffffffffffffffffffffffffffffffffe016820190925261126891810190611d0e565b60015b61132057611277611d2b565b806308c379a0036112b0575061128b611d47565b8061129657506112b2565b8060405162461bcd60e51b81526004016102ed91906116de565b505b60405162461bcd60e51b815260206004820152603460248201527f455243313135353a207472616e7366657220746f206e6f6e204552433131353560448201527f526563656976657220696d706c656d656e74657200000000000000000000000060648201526084016102ed565b7fffffffff0000000000000000000000000000000000000000000000000000000081167fbc197c8100000000000000000000000000000000000000000000000000000000146111925760405162461bcd60e51b815260206004820152602860248201527f455243313135353a204552433131353552656365697665722072656a6563746560448201527f6420746f6b656e7300000000000000000000000000000000000000000000000060648201526084016102ed565b6040805160018082528183019092526060916000919060208083019080368337019050509050828160008151811061141157611411611bd0565b602090810291909101015292915050565b73ffffffffffffffffffffffffffffffffffffffff84163b15610c82576040517ff23a6e6100000000000000000000000000000000000000000000000000000000815273ffffffffffffffffffffffffffffffffffffffff85169063f23a6e61906114999089908990889088908890600401611def565b6020604051808303816000875af19250505080156114f2575060408051601f3d9081017fffffffffffffffffffffffffffffffffffffffffffffffffffffffffffffffe01682019092526114ef91810190611d0e565b60015b6114fe57611277611d2b565b7fffffffff0000000000000000000000000000000000000000000000000000000081167ff23a6e6100000000000000000000000000000000000000000000000000000000146111925760405162461bcd60e51b815260206004820152602860248201527f455243313135353a204552433131353552656365697665722072656a6563746560448201527f6420746f6b656e7300000000000000000000000000000000000000000000000060648201526084016102ed565b803573ffffffffffffffffffffffffffffffffffffffff811681146115d957600080fd5b919050565b600080604083850312156115f157600080fd5b6115fa836115b5565b946020939093013593505050565b7fffffffff00000000000000000000000000000000000000000000000000000000811681146107de57600080fd5b60006020828403121561164857600080fd5b813561165381611608565b9392505050565b60006020828403121561166c57600080fd5b5035919050565b6000815180845260005b818110156116995760208185018101518683018201520161167d565b818111156116ab576000602083870101525b50601f017fffffffffffffffffffffffffffffffffffffffffffffffffffffffffffffffe0169290920160200192915050565b6020815260006116536020830184611673565b7f4e487b7100000000000000000000000000000000000000000000000000000000600052604160045260246000fd5b7fffffffffffffffffffffffffffffffffffffffffffffffffffffffffffffffe0601f830116810181811067ffffffffffffffff82111715611764576117646116f1565b6040525050565b600067ffffffffffffffff821115611785576117856116f1565b5060051b60200190565b600082601f8301126117a057600080fd5b813560206117ad8261176b565b6040516117ba8282611720565b83815260059390931b85018201928281019150868411156117da57600080fd5b8286015b848110156117f557803583529183019183016117de565b509695505050505050565b600082601f83011261181157600080fd5b813567ffffffffffffffff81111561182b5761182b6116f1565b60405161186060207fffffffffffffffffffffffffffffffffffffffffffffffffffffffffffffffe0601f8501160182611720565b81815284602083860101111561187557600080fd5b816020850160208301376000918101602001919091529392505050565b600080600080600060a086880312156118aa57600080fd5b6118b3866115b5565b94506118c1602087016115b5565b9350604086013567ffffffffffffffff808211156118de57600080fd5b6118ea89838a0161178f565b9450606088013591508082111561190057600080fd5b61190c89838a0161178f565b9350608088013591508082111561192257600080fd5b5061192f88828901611800565b9150509295509295909350565b6000806040838503121561194f57600080fd5b823567ffffffffffffffff8082111561196757600080fd5b818501915085601f83011261197b57600080fd5b813560206119888261176b565b6040516119958282611720565b83815260059390931b85018201928281019150898411156119b557600080fd5b948201945b838610156119da576119cb866115b5565b825294820194908201906119ba565b965050860135925050808211156119f057600080fd5b506119fd8582860161178f565b9150509250929050565b600081518084526020808501945080840160005b83811015611a3757815187529582019590820190600101611a1b565b509495945050505050565b6020815260006116536020830184611a07565b60008060408385031215611a6857600080fd5b611a71836115b5565b915060208301358015158114611a8657600080fd5b809150509250929050565b60008060408385031215611aa457600080fd5b611aad836115b5565b9150611abb602084016115b5565b90509250929050565b600080600080600060a08688031215611adc57600080fd5b611ae5866115b5565b9450611af3602087016115b5565b93506040860135925060608601359150608086013567ffffffffffffffff811115611b1d57600080fd5b61192f88828901611800565b600060208284031215611b3b57600080fd5b611653826115b5565b60008060008060808587031215611b5a57600080fd5b611b63856115b5565b966020860135965060408601359560600135945092505050565b600181811c90821680611b9157607f821691505b602082108103611bca577f4e487b7100000000000000000000000000000000000000000000000000000000600052602260045260246000fd5b50919050565b7f4e487b7100000000000000000000000000000000000000000000000000000000600052603260045260246000fd5b7f4e487b7100000000000000000000000000000000000000000000000000000000600052601160045260246000fd5b60007fffffffffffffffffffffffffffffffffffffffffffffffffffffffffffffffff8203611c5f57611c5f611bff565b5060010190565b60008219821115611c7957611c79611bff565b500190565b604081526000611c916040830185611a07565b82810360208401526108b28185611a07565b600073ffffffffffffffffffffffffffffffffffffffff808816835280871660208401525060a06040830152611cdc60a0830186611a07565b8281036060840152611cee8186611a07565b90508281036080840152611d028185611673565b98975050505050505050565b600060208284031215611d2057600080fd5b815161165381611608565b600060033d1115611d445760046000803e5060005160e01c5b90565b600060443d1015611d555790565b6040517ffffffffffffffffffffffffffffffffffffffffffffffffffffffffffffffffc803d016004833e81513d67ffffffffffffffff8160248401118184111715611da357505050505090565b8285019150815181811115611dbb5750505050505090565b843d8701016020828501011115611dd55750505050505090565b611de460208286010187611720565b509095945050505050565b600073ffffffffffffffffffffffffffffffffffffffff808816835280871660208401525084604083015283606083015260a06080830152611e3460a0830184611673565b97965050505050505056fea26469706673582212208b051da1a2ff06f83bff6a35c853f2f87d14e5139deaa2e9c7fd65a41ec49eb764736f6c634300080d003360806040523480156200001157600080fd5b5060405162001be738038062001be78339810160408190526200003491620001e1565b8151829082906200004d9060009060208501906200006e565b508051620000639060019060208401906200006e565b505050505062000287565b8280546200007c906200024b565b90600052602060002090601f016020900481019282620000a05760008555620000eb565b82601f10620000bb57805160ff1916838001178555620000eb565b82800160010185558215620000eb579182015b82811115620000eb578251825591602001919060010190620000ce565b50620000f9929150620000fd565b5090565b5b80821115620000f95760008155600101620000fe565b634e487b7160e01b600052604160045260246000fd5b600082601f8301126200013c57600080fd5b81516001600160401b038082111562000159576200015962000114565b604051601f8301601f19908116603f0116810190828211818310171562000184576200018462000114565b81604052838152602092508683858801011115620001a157600080fd5b600091505b83821015620001c55785820183015181830184015290820190620001a6565b83821115620001d75760008385830101525b9695505050505050565b60008060408385031215620001f557600080fd5b82516001600160401b03808211156200020d57600080fd5b6200021b868387016200012a565b935060208501519150808211156200023257600080fd5b5062000241858286016200012a565b9150509250929050565b600181811c908216806200026057607f821691505b6020821081036200028157634e487b7160e01b600052602260045260246000fd5b50919050565b61195080620002976000396000f3fe608060405234801561001057600080fd5b50600436106100ea5760003560e01c80636352211e1161008c578063a22cb46511610066578063a22cb465146101e3578063b88d4fde146101f6578063c87b56dd14610209578063e985e9c51461021c57600080fd5b80636352211e146101b557806370a08231146101c857806395d89b41146101db57600080fd5b8063095ea7b3116100c8578063095ea7b3146101645780631249c58b1461017957806323b872dd1461018f57806342842e0e146101a257600080fd5b806301ffc9a7146100ef57806306fdde0314610117578063081812fc1461012c575b600080fd5b6101026100fd366004611385565b610265565b60405190151581526020015b60405180910390f35b61011f61034a565b60405161010e919061141f565b61013f61013a366004611432565b6103dc565b60405173ffffffffffffffffffffffffffffffffffffffff909116815260200161010e565b610177610172366004611474565b6104a1565b005b6101816105f9565b60405190815260200161010e565b61017761019d36600461149e565b610628565b6101776101b036600461149e565b6106af565b61013f6101c3366004611432565b6106ca565b6101816101d63660046114da565b610762565b61011f610816565b6101776101f13660046114f5565b610825565b610177610204366004611560565b610834565b61011f610217366004611432565b6108c2565b61010261022a36600461165a565b73ffffffffffffffffffffffffffffffffffffffff918216600090815260056020908152604080832093909416825291909152205460ff1690565b60007fffffffff0000000000000000000000000000000000000000000000000000000082167f80ac58cd0000000000000000000000000000000000000000000000000000000014806102f857507fffffffff0000000000000000000000000000000000000000000000000000000082167f5b5e139f00000000000000000000000000000000000000000000000000000000145b8061034457507f01ffc9a7000000000000000000000000000000000000000000000000000000007fffffffff000000000000000000000000000000000000000000000000000000008316145b92915050565b6060600080546103599061168d565b80601f01602080910402602001604051908101604052809291908181526020018280546103859061168d565b80156103d25780601f106103a7576101008083540402835291602001916103d2565b820191906000526020600020905b8154815290600101906020018083116103b557829003601f168201915b5050505050905090565b60008181526002602052604081205473ffffffffffffffffffffffffffffffffffffffff166104785760405162461bcd60e51b815260206004820152602c60248201527f4552433732313a20617070726f76656420717565727920666f72206e6f6e657860448201527f697374656e7420746f6b656e000000000000000000000000000000000000000060648201526084015b60405180910390fd5b5060009081526004602052604090205473ffffffffffffffffffffffffffffffffffffffff1690565b60006104ac826106ca565b90508073ffffffffffffffffffffffffffffffffffffffff168373ffffffffffffffffffffffffffffffffffffffff160361054f5760405162461bcd60e51b815260206004820152602160248201527f4552433732313a20617070726f76616c20746f2063757272656e74206f776e6560448201527f7200000000000000000000000000000000000000000000000000000000000000606482015260840161046f565b3373ffffffffffffffffffffffffffffffffffffffff821614806105785750610578813361022a565b6105ea5760405162461bcd60e51b815260206004820152603860248201527f4552433732313a20617070726f76652063616c6c6572206973206e6f74206f7760448201527f6e6572206e6f7220617070726f76656420666f7220616c6c0000000000000000606482015260840161046f565b6105f483836108f3565b505050565b600060016006600082825461060e919061170f565b9250508190555061062133600654610993565b5060065490565b6106323382610b21565b6106a45760405162461bcd60e51b815260206004820152603160248201527f4552433732313a207472616e736665722063616c6c6572206973206e6f74206f60448201527f776e6572206e6f7220617070726f766564000000000000000000000000000000606482015260840161046f565b6105f4838383610c77565b6105f483838360405180602001604052806000815250610834565b60008181526002602052604081205473ffffffffffffffffffffffffffffffffffffffff16806103445760405162461bcd60e51b815260206004820152602960248201527f4552433732313a206f776e657220717565727920666f72206e6f6e657869737460448201527f656e7420746f6b656e0000000000000000000000000000000000000000000000606482015260840161046f565b600073ffffffffffffffffffffffffffffffffffffffff82166107ed5760405162461bcd60e51b815260206004820152602a60248201527f4552433732313a2062616c616e636520717565727920666f7220746865207a6560448201527f726f206164647265737300000000000000000000000000000000000000000000606482015260840161046f565b5073ffffffffffffffffffffffffffffffffffffffff1660009081526003602052604090205490565b6060600180546103599061168d565b610830338383610eaa565b5050565b61083e3383610b21565b6108b05760405162461bcd60e51b815260206004820152603160248201527f4552433732313a207472616e736665722063616c6c6572206973206e6f74206f60448201527f776e6572206e6f7220617070726f766564000000000000000000000000000000606482015260840161046f565b6108bc84848484610fbd565b50505050565b60606108cd82611046565b6040516020016108dd9190611727565b6040516020818303038152906040529050919050565b600081815260046020526040902080547fffffffffffffffffffffffff00000000000000000000000000000000000000001673ffffffffffffffffffffffffffffffffffffffff8416908117909155819061094d826106ca565b73ffffffffffffffffffffffffffffffffffffffff167f8c5be1e5ebec7d5bd14f71427d1e84f3dd0314c0f7b2291e5b200ac8c7c3b92560405160405180910390a45050565b73ffffffffffffffffffffffffffffffffffffffff82166109f65760405162461bcd60e51b815260206004820181905260248201527f4552433732313a206d696e7420746f20746865207a65726f2061646472657373604482015260640161046f565b60008181526002602052604090205473ffffffffffffffffffffffffffffffffffffffff1615610a685760405162461bcd60e51b815260206004820152601c60248201527f4552433732313a20746f6b656e20616c7265616479206d696e74656400000000604482015260640161046f565b73ffffffffffffffffffffffffffffffffffffffff82166000908152600360205260408120805460019290610a9e90849061170f565b909155505060008181526002602052604080822080547fffffffffffffffffffffffff00000000000000000000000000000000000000001673ffffffffffffffffffffffffffffffffffffffff861690811790915590518392907fddf252ad1be2c89b69c2b068fc378daa952ba7f163c4a11628f55a4df523b3ef908290a45050565b60008181526002602052604081205473ffffffffffffffffffffffffffffffffffffffff16610bb85760405162461bcd60e51b815260206004820152602c60248201527f4552433732313a206f70657261746f7220717565727920666f72206e6f6e657860448201527f697374656e7420746f6b656e0000000000000000000000000000000000000000606482015260840161046f565b6000610bc3836106ca565b90508073ffffffffffffffffffffffffffffffffffffffff168473ffffffffffffffffffffffffffffffffffffffff161480610c31575073ffffffffffffffffffffffffffffffffffffffff80821660009081526005602090815260408083209388168352929052205460ff165b80610c6f57508373ffffffffffffffffffffffffffffffffffffffff16610c57846103dc565b73ffffffffffffffffffffffffffffffffffffffff16145b949350505050565b8273ffffffffffffffffffffffffffffffffffffffff16610c97826106ca565b73ffffffffffffffffffffffffffffffffffffffff1614610d205760405162461bcd60e51b815260206004820152602560248201527f4552433732313a207472616e736665722066726f6d20696e636f72726563742060448201527f6f776e6572000000000000000000000000000000000000000000000000000000606482015260840161046f565b73ffffffffffffffffffffffffffffffffffffffff8216610da85760405162461bcd60e51b8152602060048201526024808201527f4552433732313a207472616e7366657220746f20746865207a65726f2061646460448201527f7265737300000000000000000000000000000000000000000000000000000000606482015260840161046f565b610db36000826108f3565b73ffffffffffffffffffffffffffffffffffffffff83166000908152600360205260408120805460019290610de99084906117df565b909155505073ffffffffffffffffffffffffffffffffffffffff82166000908152600360205260408120805460019290610e2490849061170f565b909155505060008181526002602052604080822080547fffffffffffffffffffffffff00000000000000000000000000000000000000001673ffffffffffffffffffffffffffffffffffffffff86811691821790925591518493918716917fddf252ad1be2c89b69c2b068fc378daa952ba7f163c4a11628f55a4df523b3ef91a4505050565b8173ffffffffffffffffffffffffffffffffffffffff168373ffffffffffffffffffffffffffffffffffffffff1603610f255760405162461bcd60e51b815260206004820152601960248201527f4552433732313a20617070726f766520746f2063616c6c657200000000000000604482015260640161046f565b73ffffffffffffffffffffffffffffffffffffffff83811660008181526005602090815260408083209487168084529482529182902080547fffffffffffffffffffffffffffffffffffffffffffffffffffffffffffffff001686151590811790915591519182527f17307eab39ab6107e8899845ad3d59bd9653f200f220920489ca2b5937696c31910160405180910390a3505050565b610fc8848484610c77565b610fd48484848461117b565b6108bc5760405162461bcd60e51b815260206004820152603260248201527f4552433732313a207472616e7366657220746f206e6f6e20455243373231526560448201527f63656976657220696d706c656d656e7465720000000000000000000000000000606482015260840161046f565b60608160000361108957505060408051808201909152600181527f3000000000000000000000000000000000000000000000000000000000000000602082015290565b8160005b81156110b3578061109d816117f6565b91506110ac9050600a8361185d565b915061108d565b60008167ffffffffffffffff8111156110ce576110ce611531565b6040519080825280601f01601f1916602001820160405280156110f8576020820181803683370190505b5090505b8415610c6f5761110d6001836117df565b915061111a600a86611871565b61112590603061170f565b60f81b81838151811061113a5761113a611885565b60200101907effffffffffffffffffffffffffffffffffffffffffffffffffffffffffffff1916908160001a905350611174600a8661185d565b94506110fc565b600073ffffffffffffffffffffffffffffffffffffffff84163b15611349576040517f150b7a0200000000000000000000000000000000000000000000000000000000815273ffffffffffffffffffffffffffffffffffffffff85169063150b7a02906111f29033908990889088906004016118b4565b6020604051808303816000875af192505050801561124b575060408051601f3d9081017fffffffffffffffffffffffffffffffffffffffffffffffffffffffffffffffe0168201909252611248918101906118fd565b60015b6112fe573d808015611279576040519150601f19603f3d011682016040523d82523d6000602084013e61127e565b606091505b5080516000036112f65760405162461bcd60e51b815260206004820152603260248201527f4552433732313a207472616e7366657220746f206e6f6e20455243373231526560448201527f63656976657220696d706c656d656e7465720000000000000000000000000000606482015260840161046f565b805181602001fd5b7fffffffff00000000000000000000000000000000000000000000000000000000167f150b7a0200000000000000000000000000000000000000000000000000000000149050610c6f565b506001949350505050565b7fffffffff000000000000000000000000000000000000000000000000000000008116811461138257600080fd5b50565b60006020828403121561139757600080fd5b81356113a281611354565b9392505050565b60005b838110156113c45781810151838201526020016113ac565b838111156108bc5750506000910152565b600081518084526113ed8160208601602086016113a9565b601f017fffffffffffffffffffffffffffffffffffffffffffffffffffffffffffffffe0169290920160200192915050565b6020815260006113a260208301846113d5565b60006020828403121561144457600080fd5b5035919050565b803573ffffffffffffffffffffffffffffffffffffffff8116811461146f57600080fd5b919050565b6000806040838503121561148757600080fd5b6114908361144b565b946020939093013593505050565b6000806000606084860312156114b357600080fd5b6114bc8461144b565b92506114ca6020850161144b565b9150604084013590509250925092565b6000602082840312156114ec57600080fd5b6113a28261144b565b6000806040838503121561150857600080fd5b6115118361144b565b91506020830135801515811461152657600080fd5b809150509250929050565b7f4e487b7100000000000000000000000000000000000000000000000000000000600052604160045260246000fd5b6000806000806080858703121561157657600080fd5b61157f8561144b565b935061158d6020860161144b565b925060408501359150606085013567ffffffffffffffff808211156115b157600080fd5b818701915087601f8301126115c557600080fd5b8135818111156115d7576115d7611531565b604051601f82017fffffffffffffffffffffffffffffffffffffffffffffffffffffffffffffffe0908116603f0116810190838211818310171561161d5761161d611531565b816040528281528a602084870101111561163657600080fd5b82602086016020830137600060208483010152809550505050505092959194509250565b6000806040838503121561166d57600080fd5b6116768361144b565b91506116846020840161144b565b90509250929050565b600181811c908216806116a157607f821691505b6020821081036116da577f4e487b7100000000000000000000000000000000000000000000000000000000600052602260045260246000fd5b50919050565b7f4e487b7100000000000000000000000000000000000000000000000000000000600052601160045260246000fd5b60008219821115611722576117226116e0565b500190565b7f68747470733a2f2f676174657761792e70696e6174612e636c6f75642f69706681527f732f516d55725037516d3259466a4672633779684b6a53464c6e4e756a76363860208201527f46483442383237416a356678503731592f0000000000000000000000000000006040820152600082516117ab8160518501602087016113a9565b7f2e6a736f6e0000000000000000000000000000000000000000000000000000006051939091019283015250605601919050565b6000828210156117f1576117f16116e0565b500390565b60007fffffffffffffffffffffffffffffffffffffffffffffffffffffffffffffffff8203611827576118276116e0565b5060010190565b7f4e487b7100000000000000000000000000000000000000000000000000000000600052601260045260246000fd5b60008261186c5761186c61182e565b500490565b6000826118805761188061182e565b500690565b7f4e487b7100000000000000000000000000000000000000000000000000000000600052603260045260246000fd5b600073ffffffffffffffffffffffffffffffffffffffff8087168352808616602084015250836040830152608060608301526118f360808301846113d5565b9695505050505050565b60006020828403121561190f57600080fd5b81516113a28161135456fea264697066735822122010544972f5e62d77d8b8472e23afb89b22808aca4b2ab186d7943a577e1bb0f564736f6c634300080d0033a26469706673582212203336567dca320601ccd7c736a7d967d9716d78b7a0ad2897a29a031a91f9d95764736f6c634300080d0033",
  "immutableReferences": {},
  "source": "// SPDX-License-Identifier: MIT\npragma solidity 0.8.13;\n\nimport \"./Nft.sol\";\nimport \"./Sft.sol\";\n\n\ncontract Factory{\n\n    mapping(address => uint) amountOfContracts;\n    mapping(address => mapping (uint => address)) createdContracts;\n    mapping(address => uint) lastCrationTimestamp;\n\n    function deployNft(string memory symbol, string memory name)external{\n        if(amountOfContracts[msg.sender] == 0){\n            firstNft _contract = new firstNft(symbol, name);\n            createdContracts[msg.sender][amountOfContracts[msg.sender]] = address(_contract);\n            amountOfContracts[msg.sender] += 1;\n        }\n        else{\n            require(block.timestamp - lastCrationTimestamp[msg.sender] >= 1 days, \"you can create a collection only once per day\");\n            firstNft _contract = new firstNft(symbol, name);\n            createdContracts[msg.sender][amountOfContracts[msg.sender]] = address(_contract);\n            amountOfContracts[msg.sender] += 1;\n        }\n\n    }\n\n    function deploySft(string memory uri)external{\n        if(amountOfContracts[msg.sender] == 0){\n            sft _contract = new sft(uri);\n            createdContracts[msg.sender][amountOfContracts[msg.sender]] = address(_contract);\n            amountOfContracts[msg.sender] += 1;\n        }\n        else{\n            require(block.timestamp - lastCrationTimestamp[msg.sender] >= 1 days, \"you can create a collection only once per day\");\n            sft _contract = new sft(uri);\n            createdContracts[msg.sender][amountOfContracts[msg.sender]] = address(_contract);\n            amountOfContracts[msg.sender] += 1;\n        }\n    }\n\n    function getMyContractAmount()external view returns(uint){\n        return amountOfContracts[msg.sender];\n    }\n\n    function getAContract(uint _i)external view returns(address){\n        return createdContracts[msg.sender][_i];\n    }\n}",
  "sourcePath": "/home/amsteradams/developpement/Solidity-Nfts/first-factory/contracts/Factory.sol",
  "compiler": {
    "name": "solc",
    "version": "0.8.13+commit.abaa5c0e.Emscripten.clang"
  },
  "schemaVersion": "3.4.6",
  "updatedAt": "2022-05-10T12:07:21.065Z",
  "networkType": "ethereum",
  "devdoc": {
    "kind": "dev",
    "methods": {},
    "version": 1
  },
  "userdoc": {
    "kind": "user",
    "methods": {},
    "version": 1
  }
}