{
  "contractName": "sft",
  "abi": [
    {
      "inputs": [
        {
          "internalType": "string",
          "name": "uri",
          "type": "string"
        }
      ],
      "stateMutability": "nonpayable",
      "type": "constructor"
    },
    {
      "anonymous": false,
      "inputs": [
        {
          "indexed": true,
          "internalType": "address",
          "name": "account",
          "type": "address"
        },
        {
          "indexed": true,
          "internalType": "address",
          "name": "operator",
          "type": "address"
        },
        {
          "indexed": false,
          "internalType": "bool",
          "name": "approved",
          "type": "bool"
        }
      ],
      "name": "ApprovalForAll",
      "type": "event"
    },
    {
      "anonymous": false,
      "inputs": [
        {
          "indexed": true,
          "internalType": "address",
          "name": "previousOwner",
          "type": "address"
        },
        {
          "indexed": true,
          "internalType": "address",
          "name": "newOwner",
          "type": "address"
        }
      ],
      "name": "OwnershipTransferred",
      "type": "event"
    },
    {
      "anonymous": false,
      "inputs": [
        {
          "indexed": true,
          "internalType": "address",
          "name": "operator",
          "type": "address"
        },
        {
          "indexed": true,
          "internalType": "address",
          "name": "from",
          "type": "address"
        },
        {
          "indexed": true,
          "internalType": "address",
          "name": "to",
          "type": "address"
        },
        {
          "indexed": false,
          "internalType": "uint256[]",
          "name": "ids",
          "type": "uint256[]"
        },
        {
          "indexed": false,
          "internalType": "uint256[]",
          "name": "values",
          "type": "uint256[]"
        }
      ],
      "name": "TransferBatch",
      "type": "event"
    },
    {
      "anonymous": false,
      "inputs": [
        {
          "indexed": true,
          "internalType": "address",
          "name": "operator",
          "type": "address"
        },
        {
          "indexed": true,
          "internalType": "address",
          "name": "from",
          "type": "address"
        },
        {
          "indexed": true,
          "internalType": "address",
          "name": "to",
          "type": "address"
        },
        {
          "indexed": false,
          "internalType": "uint256",
          "name": "id",
          "type": "uint256"
        },
        {
          "indexed": false,
          "internalType": "uint256",
          "name": "value",
          "type": "uint256"
        }
      ],
      "name": "TransferSingle",
      "type": "event"
    },
    {
      "anonymous": false,
      "inputs": [
        {
          "indexed": false,
          "internalType": "string",
          "name": "value",
          "type": "string"
        },
        {
          "indexed": true,
          "internalType": "uint256",
          "name": "id",
          "type": "uint256"
        }
      ],
      "name": "URI",
      "type": "event"
    },
    {
      "inputs": [
        {
          "internalType": "address",
          "name": "account",
          "type": "address"
        },
        {
          "internalType": "uint256",
          "name": "id",
          "type": "uint256"
        }
      ],
      "name": "balanceOf",
      "outputs": [
        {
          "internalType": "uint256",
          "name": "",
          "type": "uint256"
        }
      ],
      "stateMutability": "view",
      "type": "function"
    },
    {
      "inputs": [
        {
          "internalType": "address[]",
          "name": "accounts",
          "type": "address[]"
        },
        {
          "internalType": "uint256[]",
          "name": "ids",
          "type": "uint256[]"
        }
      ],
      "name": "balanceOfBatch",
      "outputs": [
        {
          "internalType": "uint256[]",
          "name": "",
          "type": "uint256[]"
        }
      ],
      "stateMutability": "view",
      "type": "function"
    },
    {
      "inputs": [
        {
          "internalType": "address",
          "name": "account",
          "type": "address"
        },
        {
          "internalType": "address",
          "name": "operator",
          "type": "address"
        }
      ],
      "name": "isApprovedForAll",
      "outputs": [
        {
          "internalType": "bool",
          "name": "",
          "type": "bool"
        }
      ],
      "stateMutability": "view",
      "type": "function"
    },
    {
      "inputs": [
        {
          "internalType": "uint256",
          "name": "",
          "type": "uint256"
        }
      ],
      "name": "itemSold",
      "outputs": [
        {
          "internalType": "uint256",
          "name": "",
          "type": "uint256"
        }
      ],
      "stateMutability": "view",
      "type": "function"
    },
    {
      "inputs": [],
      "name": "owner",
      "outputs": [
        {
          "internalType": "address",
          "name": "",
          "type": "address"
        }
      ],
      "stateMutability": "view",
      "type": "function"
    },
    {
      "inputs": [],
      "name": "renounceOwnership",
      "outputs": [],
      "stateMutability": "nonpayable",
      "type": "function"
    },
    {
      "inputs": [
        {
          "internalType": "address",
          "name": "from",
          "type": "address"
        },
        {
          "internalType": "address",
          "name": "to",
          "type": "address"
        },
        {
          "internalType": "uint256[]",
          "name": "ids",
          "type": "uint256[]"
        },
        {
          "internalType": "uint256[]",
          "name": "amounts",
          "type": "uint256[]"
        },
        {
          "internalType": "bytes",
          "name": "data",
          "type": "bytes"
        }
      ],
      "name": "safeBatchTransferFrom",
      "outputs": [],
      "stateMutability": "nonpayable",
      "type": "function"
    },
    {
      "inputs": [
        {
          "internalType": "address",
          "name": "from",
          "type": "address"
        },
        {
          "internalType": "address",
          "name": "to",
          "type": "address"
        },
        {
          "internalType": "uint256",
          "name": "id",
          "type": "uint256"
        },
        {
          "internalType": "uint256",
          "name": "amount",
          "type": "uint256"
        },
        {
          "internalType": "bytes",
          "name": "data",
          "type": "bytes"
        }
      ],
      "name": "safeTransferFrom",
      "outputs": [],
      "stateMutability": "nonpayable",
      "type": "function"
    },
    {
      "inputs": [
        {
          "internalType": "address",
          "name": "operator",
          "type": "address"
        },
        {
          "internalType": "bool",
          "name": "approved",
          "type": "bool"
        }
      ],
      "name": "setApprovalForAll",
      "outputs": [],
      "stateMutability": "nonpayable",
      "type": "function"
    },
    {
      "inputs": [
        {
          "internalType": "address",
          "name": "newOwner",
          "type": "address"
        }
      ],
      "name": "transferOwnership",
      "outputs": [],
      "stateMutability": "nonpayable",
      "type": "function"
    },
    {
      "inputs": [
        {
          "internalType": "uint256",
          "name": "",
          "type": "uint256"
        }
      ],
      "name": "uri",
      "outputs": [
        {
          "internalType": "string",
          "name": "",
          "type": "string"
        }
      ],
      "stateMutability": "view",
      "type": "function"
    },
    {
      "inputs": [
        {
          "internalType": "bytes4",
          "name": "interfaceId",
          "type": "bytes4"
        }
      ],
      "name": "supportsInterface",
      "outputs": [
        {
          "internalType": "bool",
          "name": "",
          "type": "bool"
        }
      ],
      "stateMutability": "view",
      "type": "function"
    },
    {
      "inputs": [
        {
          "internalType": "address",
          "name": "_addr",
          "type": "address"
        },
        {
          "internalType": "uint256",
          "name": "_smartness",
          "type": "uint256"
        },
        {
          "internalType": "uint256",
          "name": "_height",
          "type": "uint256"
        },
        {
          "internalType": "uint256",
          "name": "_supply",
          "type": "uint256"
        }
      ],
      "name": "createItem",
      "outputs": [
        {
          "internalType": "uint256",
          "name": "",
          "type": "uint256"
        }
      ],
      "stateMutability": "nonpayable",
      "type": "function"
    }
  ],
  "bytecode": "0x60806040523480156200001157600080fd5b50604051620021173803806200211783398101604081905262000034916200017a565b80620000408162000053565b506200004c336200006c565b5062000292565b805162000068906002906020840190620000be565b5050565b600380546001600160a01b038381166001600160a01b0319831681179093556040519116919082907f8be0079c531659141344cd1fd0a4f28419497f9722a3daafe3b4186f6b6457e090600090a35050565b828054620000cc9062000256565b90600052602060002090601f016020900481019282620000f057600085556200013b565b82601f106200010b57805160ff19168380011785556200013b565b828001600101855582156200013b579182015b828111156200013b5782518255916020019190600101906200011e565b50620001499291506200014d565b5090565b5b808211156200014957600081556001016200014e565b634e487b7160e01b600052604160045260246000fd5b600060208083850312156200018e57600080fd5b82516001600160401b0380821115620001a657600080fd5b818501915085601f830112620001bb57600080fd5b815181811115620001d057620001d062000164565b604051601f8201601f19908116603f01168101908382118183101715620001fb57620001fb62000164565b8160405282815288868487010111156200021457600080fd5b600093505b8284101562000238578484018601518185018701529285019262000219565b828411156200024a5760008684830101525b98975050505050505050565b600181811c908216806200026b57607f821691505b6020821081036200028c57634e487b7160e01b600052602260045260246000fd5b50919050565b611e7580620002a26000396000f3fe608060405234801561001057600080fd5b50600436106100de5760003560e01c80638da5cb5b1161008c578063f0596a7911610066578063f0596a791461020d578063f242432a1461022d578063f2fde38b14610240578063f6176e641461025357600080fd5b80638da5cb5b14610189578063a22cb465146101b1578063e985e9c5146101c457600080fd5b80632eb2c2d6116100bd5780632eb2c2d61461014c5780634e1273f414610161578063715018a61461018157600080fd5b8062fdd58e146100e357806301ffc9a7146101095780630e89341c1461012c575b600080fd5b6100f66100f13660046115de565b610266565b6040519081526020015b60405180910390f35b61011c610117366004611636565b610329565b6040519015158152602001610100565b61013f61013a36600461165a565b61033a565b60405161010091906116de565b61015f61015a366004611892565b6103ce565b005b61017461016f36600461193c565b61047d565b6040516101009190611a42565b61015f6105bb565b60035460405173ffffffffffffffffffffffffffffffffffffffff9091168152602001610100565b61015f6101bf366004611a55565b61062e565b61011c6101d2366004611a91565b73ffffffffffffffffffffffffffffffffffffffff918216600090815260016020908152604080832093909416825291909152205460ff1690565b6100f661021b36600461165a565b60066020526000908152604090205481565b61015f61023b366004611ac4565b61063d565b61015f61024e366004611b29565b6106e5565b6100f6610261366004611b44565b6107e1565b600073ffffffffffffffffffffffffffffffffffffffff83166102f65760405162461bcd60e51b815260206004820152602b60248201527f455243313135353a2062616c616e636520717565727920666f7220746865207a60448201527f65726f206164647265737300000000000000000000000000000000000000000060648201526084015b60405180910390fd5b5060009081526020818152604080832073ffffffffffffffffffffffffffffffffffffffff949094168352929052205490565b6000610334826108bb565b92915050565b60606002805461034990611b7d565b80601f016020809104026020016040519081016040528092919081815260200182805461037590611b7d565b80156103c25780601f10610397576101008083540402835291602001916103c2565b820191906000526020600020905b8154815290600101906020018083116103a557829003601f168201915b50505050509050919050565b73ffffffffffffffffffffffffffffffffffffffff85163314806103f757506103f785336101d2565b6104695760405162461bcd60e51b815260206004820152603260248201527f455243313135353a207472616e736665722063616c6c6572206973206e6f742060448201527f6f776e6572206e6f7220617070726f766564000000000000000000000000000060648201526084016102ed565b610476858585858561099e565b5050505050565b606081518351146104f65760405162461bcd60e51b815260206004820152602960248201527f455243313135353a206163636f756e747320616e6420696473206c656e67746860448201527f206d69736d61746368000000000000000000000000000000000000000000000060648201526084016102ed565b6000835167ffffffffffffffff811115610512576105126116f1565b60405190808252806020026020018201604052801561053b578160200160208202803683370190505b50905060005b84518110156105b35761058685828151811061055f5761055f611bd0565b602002602001015185838151811061057957610579611bd0565b6020026020010151610266565b82828151811061059857610598611bd0565b60209081029190910101526105ac81611c2e565b9050610541565b509392505050565b60035473ffffffffffffffffffffffffffffffffffffffff1633146106225760405162461bcd60e51b815260206004820181905260248201527f4f776e61626c653a2063616c6c6572206973206e6f7420746865206f776e657260448201526064016102ed565b61062c6000610c8a565b565b610639338383610d01565b5050565b73ffffffffffffffffffffffffffffffffffffffff8516331480610666575061066685336101d2565b6106d85760405162461bcd60e51b815260206004820152602960248201527f455243313135353a2063616c6c6572206973206e6f74206f776e6572206e6f7260448201527f20617070726f766564000000000000000000000000000000000000000000000060648201526084016102ed565b6104768585858585610e3a565b60035473ffffffffffffffffffffffffffffffffffffffff16331461074c5760405162461bcd60e51b815260206004820181905260248201527f4f776e61626c653a2063616c6c6572206973206e6f7420746865206f776e657260448201526064016102ed565b73ffffffffffffffffffffffffffffffffffffffff81166107d55760405162461bcd60e51b815260206004820152602660248201527f4f776e61626c653a206e6577206f776e657220697320746865207a65726f206160448201527f646472657373000000000000000000000000000000000000000000000000000060648201526084016102ed565b6107de81610c8a565b50565b60006107f1600480546001019055565b604080516060810182528581526020810185815291810184815260058054600181018255600091825292517f036b6384b5eca791c62761152d0c79bb0604c104a5fb6f4eb0703f3154bb3db060039094029384015592517f036b6384b5eca791c62761152d0c79bb0604c104a5fb6f4eb0703f3154bb3db1830155517f036b6384b5eca791c62761152d0c79bb0604c104a5fb6f4eb0703f3154bb3db29091015560045490506108b286828560405180602001604052806000815250611044565b95945050505050565b60007fffffffff0000000000000000000000000000000000000000000000000000000082167fd9b67a2600000000000000000000000000000000000000000000000000000000148061094e57507fffffffff0000000000000000000000000000000000000000000000000000000082167f0e89341c00000000000000000000000000000000000000000000000000000000145b8061033457507f01ffc9a7000000000000000000000000000000000000000000000000000000007fffffffff00000000000000000000000000000000000000000000000000000000831614610334565b8151835114610a155760405162461bcd60e51b815260206004820152602860248201527f455243313135353a2069647320616e6420616d6f756e7473206c656e6774682060448201527f6d69736d6174636800000000000000000000000000000000000000000000000060648201526084016102ed565b73ffffffffffffffffffffffffffffffffffffffff8416610a9e5760405162461bcd60e51b815260206004820152602560248201527f455243313135353a207472616e7366657220746f20746865207a65726f20616460448201527f647265737300000000000000000000000000000000000000000000000000000060648201526084016102ed565b3360005b8451811015610bf5576000858281518110610abf57610abf611bd0565b602002602001015190506000858381518110610add57610add611bd0565b6020908102919091018101516000848152808352604080822073ffffffffffffffffffffffffffffffffffffffff8e168352909352919091205490915081811015610b905760405162461bcd60e51b815260206004820152602a60248201527f455243313135353a20696e73756666696369656e742062616c616e636520666f60448201527f72207472616e736665720000000000000000000000000000000000000000000060648201526084016102ed565b60008381526020818152604080832073ffffffffffffffffffffffffffffffffffffffff8e8116855292528083208585039055908b16825281208054849290610bda908490611c66565b9250508190555050505080610bee90611c2e565b9050610aa2565b508473ffffffffffffffffffffffffffffffffffffffff168673ffffffffffffffffffffffffffffffffffffffff168273ffffffffffffffffffffffffffffffffffffffff167f4a39dc06d4c0dbc64b70af90fd698a233a518aa5d07e595d983b8c0526c8f7fb8787604051610c6c929190611c7e565b60405180910390a4610c8281878787878761119b565b505050505050565b6003805473ffffffffffffffffffffffffffffffffffffffff8381167fffffffffffffffffffffffff0000000000000000000000000000000000000000831681179093556040519116919082907f8be0079c531659141344cd1fd0a4f28419497f9722a3daafe3b4186f6b6457e090600090a35050565b8173ffffffffffffffffffffffffffffffffffffffff168373ffffffffffffffffffffffffffffffffffffffff1603610da25760405162461bcd60e51b815260206004820152602960248201527f455243313135353a2073657474696e6720617070726f76616c2073746174757360448201527f20666f722073656c66000000000000000000000000000000000000000000000060648201526084016102ed565b73ffffffffffffffffffffffffffffffffffffffff83811660008181526001602090815260408083209487168084529482529182902080547fffffffffffffffffffffffffffffffffffffffffffffffffffffffffffffff001686151590811790915591519182527f17307eab39ab6107e8899845ad3d59bd9653f200f220920489ca2b5937696c31910160405180910390a3505050565b73ffffffffffffffffffffffffffffffffffffffff8416610ec35760405162461bcd60e51b815260206004820152602560248201527f455243313135353a207472616e7366657220746f20746865207a65726f20616460448201527f647265737300000000000000000000000000000000000000000000000000000060648201526084016102ed565b336000610ecf856113d7565b90506000610edc856113d7565b905060008681526020818152604080832073ffffffffffffffffffffffffffffffffffffffff8c16845290915290205485811015610f825760405162461bcd60e51b815260206004820152602a60248201527f455243313135353a20696e73756666696369656e742062616c616e636520666f60448201527f72207472616e736665720000000000000000000000000000000000000000000060648201526084016102ed565b60008781526020818152604080832073ffffffffffffffffffffffffffffffffffffffff8d8116855292528083208985039055908a16825281208054889290610fcc908490611c66565b9091555050604080518881526020810188905273ffffffffffffffffffffffffffffffffffffffff808b16928c821692918816917fc3d58168c5ae7397731d063d5bbf3d657854427343f4c083240f7aacaa2d0f62910160405180910390a4611039848a8a8a8a8a611422565b505050505050505050565b73ffffffffffffffffffffffffffffffffffffffff84166110cd5760405162461bcd60e51b815260206004820152602160248201527f455243313135353a206d696e7420746f20746865207a65726f2061646472657360448201527f730000000000000000000000000000000000000000000000000000000000000060648201526084016102ed565b3360006110d9856113d7565b905060006110e6856113d7565b905060008681526020818152604080832073ffffffffffffffffffffffffffffffffffffffff8b16845290915281208054879290611125908490611c66565b9091555050604080518781526020810187905273ffffffffffffffffffffffffffffffffffffffff808a1692600092918716917fc3d58168c5ae7397731d063d5bbf3d657854427343f4c083240f7aacaa2d0f62910160405180910390a461119283600089898989611422565b50505050505050565b73ffffffffffffffffffffffffffffffffffffffff84163b15610c82576040517fbc197c8100000000000000000000000000000000000000000000000000000000815273ffffffffffffffffffffffffffffffffffffffff85169063bc197c81906112129089908990889088908890600401611ca3565b6020604051808303816000875af192505050801561126b575060408051601f3d9081017fffffffffffffffffffffffffffffffffffffffffffffffffffffffffffffffe016820190925261126891810190611d0e565b60015b61132057611277611d2b565b806308c379a0036112b0575061128b611d47565b8061129657506112b2565b8060405162461bcd60e51b81526004016102ed91906116de565b505b60405162461bcd60e51b815260206004820152603460248201527f455243313135353a207472616e7366657220746f206e6f6e204552433131353560448201527f526563656976657220696d706c656d656e74657200000000000000000000000060648201526084016102ed565b7fffffffff0000000000000000000000000000000000000000000000000000000081167fbc197c8100000000000000000000000000000000000000000000000000000000146111925760405162461bcd60e51b815260206004820152602860248201527f455243313135353a204552433131353552656365697665722072656a6563746560448201527f6420746f6b656e7300000000000000000000000000000000000000000000000060648201526084016102ed565b6040805160018082528183019092526060916000919060208083019080368337019050509050828160008151811061141157611411611bd0565b602090810291909101015292915050565b73ffffffffffffffffffffffffffffffffffffffff84163b15610c82576040517ff23a6e6100000000000000000000000000000000000000000000000000000000815273ffffffffffffffffffffffffffffffffffffffff85169063f23a6e61906114999089908990889088908890600401611def565b6020604051808303816000875af19250505080156114f2575060408051601f3d9081017fffffffffffffffffffffffffffffffffffffffffffffffffffffffffffffffe01682019092526114ef91810190611d0e565b60015b6114fe57611277611d2b565b7fffffffff0000000000000000000000000000000000000000000000000000000081167ff23a6e6100000000000000000000000000000000000000000000000000000000146111925760405162461bcd60e51b815260206004820152602860248201527f455243313135353a204552433131353552656365697665722072656a6563746560448201527f6420746f6b656e7300000000000000000000000000000000000000000000000060648201526084016102ed565b803573ffffffffffffffffffffffffffffffffffffffff811681146115d957600080fd5b919050565b600080604083850312156115f157600080fd5b6115fa836115b5565b946020939093013593505050565b7fffffffff00000000000000000000000000000000000000000000000000000000811681146107de57600080fd5b60006020828403121561164857600080fd5b813561165381611608565b9392505050565b60006020828403121561166c57600080fd5b5035919050565b6000815180845260005b818110156116995760208185018101518683018201520161167d565b818111156116ab576000602083870101525b50601f017fffffffffffffffffffffffffffffffffffffffffffffffffffffffffffffffe0169290920160200192915050565b6020815260006116536020830184611673565b7f4e487b7100000000000000000000000000000000000000000000000000000000600052604160045260246000fd5b7fffffffffffffffffffffffffffffffffffffffffffffffffffffffffffffffe0601f830116810181811067ffffffffffffffff82111715611764576117646116f1565b6040525050565b600067ffffffffffffffff821115611785576117856116f1565b5060051b60200190565b600082601f8301126117a057600080fd5b813560206117ad8261176b565b6040516117ba8282611720565b83815260059390931b85018201928281019150868411156117da57600080fd5b8286015b848110156117f557803583529183019183016117de565b509695505050505050565b600082601f83011261181157600080fd5b813567ffffffffffffffff81111561182b5761182b6116f1565b60405161186060207fffffffffffffffffffffffffffffffffffffffffffffffffffffffffffffffe0601f8501160182611720565b81815284602083860101111561187557600080fd5b816020850160208301376000918101602001919091529392505050565b600080600080600060a086880312156118aa57600080fd5b6118b3866115b5565b94506118c1602087016115b5565b9350604086013567ffffffffffffffff808211156118de57600080fd5b6118ea89838a0161178f565b9450606088013591508082111561190057600080fd5b61190c89838a0161178f565b9350608088013591508082111561192257600080fd5b5061192f88828901611800565b9150509295509295909350565b6000806040838503121561194f57600080fd5b823567ffffffffffffffff8082111561196757600080fd5b818501915085601f83011261197b57600080fd5b813560206119888261176b565b6040516119958282611720565b83815260059390931b85018201928281019150898411156119b557600080fd5b948201945b838610156119da576119cb866115b5565b825294820194908201906119ba565b965050860135925050808211156119f057600080fd5b506119fd8582860161178f565b9150509250929050565b600081518084526020808501945080840160005b83811015611a3757815187529582019590820190600101611a1b565b509495945050505050565b6020815260006116536020830184611a07565b60008060408385031215611a6857600080fd5b611a71836115b5565b915060208301358015158114611a8657600080fd5b809150509250929050565b60008060408385031215611aa457600080fd5b611aad836115b5565b9150611abb602084016115b5565b90509250929050565b600080600080600060a08688031215611adc57600080fd5b611ae5866115b5565b9450611af3602087016115b5565b93506040860135925060608601359150608086013567ffffffffffffffff811115611b1d57600080fd5b61192f88828901611800565b600060208284031215611b3b57600080fd5b611653826115b5565b60008060008060808587031215611b5a57600080fd5b611b63856115b5565b966020860135965060408601359560600135945092505050565b600181811c90821680611b9157607f821691505b602082108103611bca577f4e487b7100000000000000000000000000000000000000000000000000000000600052602260045260246000fd5b50919050565b7f4e487b7100000000000000000000000000000000000000000000000000000000600052603260045260246000fd5b7f4e487b7100000000000000000000000000000000000000000000000000000000600052601160045260246000fd5b60007fffffffffffffffffffffffffffffffffffffffffffffffffffffffffffffffff8203611c5f57611c5f611bff565b5060010190565b60008219821115611c7957611c79611bff565b500190565b604081526000611c916040830185611a07565b82810360208401526108b28185611a07565b600073ffffffffffffffffffffffffffffffffffffffff808816835280871660208401525060a06040830152611cdc60a0830186611a07565b8281036060840152611cee8186611a07565b90508281036080840152611d028185611673565b98975050505050505050565b600060208284031215611d2057600080fd5b815161165381611608565b600060033d1115611d445760046000803e5060005160e01c5b90565b600060443d1015611d555790565b6040517ffffffffffffffffffffffffffffffffffffffffffffffffffffffffffffffffc803d016004833e81513d67ffffffffffffffff8160248401118184111715611da357505050505090565b8285019150815181811115611dbb5750505050505090565b843d8701016020828501011115611dd55750505050505090565b611de460208286010187611720565b509095945050505050565b600073ffffffffffffffffffffffffffffffffffffffff808816835280871660208401525084604083015283606083015260a06080830152611e3460a0830184611673565b97965050505050505056fea26469706673582212208b051da1a2ff06f83bff6a35c853f2f87d14e5139deaa2e9c7fd65a41ec49eb764736f6c634300080d0033",
  "immutableReferences": {},
  "source": "// SPDX-License-Identifier: MIT\npragma solidity 0.8.13;\n\nimport \"@openzeppelin/contracts/token/ERC1155/ERC1155.sol\";\nimport \"@openzeppelin/contracts/utils/Counters.sol\";\nimport \"@openzeppelin/contracts/access/Ownable.sol\";\n\ncontract sft is ERC1155, Ownable{\n  using Counters for Counters.Counter;\n  Counters.Counter private _tokenId;\n  struct Item {\n    uint smartness;\n    uint height;\n    uint maxSupply;\n  }\n\n  Item[] Items;\n\n  mapping(uint => uint) public itemSold;\n    constructor(string memory uri) ERC1155(uri){\n    }\n\n    function supportsInterface(bytes4 interfaceId)public view virtual override(ERC1155) returns(bool){\n      return super.supportsInterface(interfaceId);\n    }\n\n    function createItem(address _addr, uint _smartness, uint _height, uint _supply)public returns(uint){\n      _tokenId.increment();\n      Items.push(Item(_smartness, _height, _supply));\n      uint _newTokenId = _tokenId.current();\n      _mint(_addr, _newTokenId, _supply, \"\");\n      return _newTokenId;\n    }\n\n}",
  "sourcePath": "/home/amsteradams/developpement/Solidity-Nfts/first-factory/contracts/Sft.sol",
  "compiler": {
    "name": "solc",
    "version": "0.8.13+commit.abaa5c0e.Emscripten.clang"
  },
  "schemaVersion": "3.4.6",
  "updatedAt": "2022-05-10T11:54:59.095Z",
  "devdoc": {
    "kind": "dev",
    "methods": {
      "balanceOf(address,uint256)": {
        "details": "See {IERC1155-balanceOf}. Requirements: - `account` cannot be the zero address."
      },
      "balanceOfBatch(address[],uint256[])": {
        "details": "See {IERC1155-balanceOfBatch}. Requirements: - `accounts` and `ids` must have the same length."
      },
      "isApprovedForAll(address,address)": {
        "details": "See {IERC1155-isApprovedForAll}."
      },
      "owner()": {
        "details": "Returns the address of the current owner."
      },
      "renounceOwnership()": {
        "details": "Leaves the contract without owner. It will not be possible to call `onlyOwner` functions anymore. Can only be called by the current owner. NOTE: Renouncing ownership will leave the contract without an owner, thereby removing any functionality that is only available to the owner."
      },
      "safeBatchTransferFrom(address,address,uint256[],uint256[],bytes)": {
        "details": "See {IERC1155-safeBatchTransferFrom}."
      },
      "safeTransferFrom(address,address,uint256,uint256,bytes)": {
        "details": "See {IERC1155-safeTransferFrom}."
      },
      "setApprovalForAll(address,bool)": {
        "details": "See {IERC1155-setApprovalForAll}."
      },
      "supportsInterface(bytes4)": {
        "details": "See {IERC165-supportsInterface}."
      },
      "transferOwnership(address)": {
        "details": "Transfers ownership of the contract to a new account (`newOwner`). Can only be called by the current owner."
      },
      "uri(uint256)": {
        "details": "See {IERC1155MetadataURI-uri}. This implementation returns the same URI for *all* token types. It relies on the token type ID substitution mechanism https://eips.ethereum.org/EIPS/eip-1155#metadata[defined in the EIP]. Clients calling this function must replace the `\\{id\\}` substring with the actual token type ID."
      }
    },
    "version": 1
  },
  "userdoc": {
    "kind": "user",
    "methods": {},
    "version": 1
  }
}